:020000040800F2
:10000000B04400205D020008971D00087F1A000818
:10001000951D0008B5040008D92400080000000060
:100020000000000000000000000000009D0100082A
:100030004506000800000000F9010008C120000882
:1000400077020008770200087702000877020008AC
:10005000770200087702000877020008770200089C
:10006000770200087702000877020008770200088C
:10007000770200087702000877020008770200087C
:10008000770200087702000877020008770200086C
:10009000770200087702000877020008770200085C
:1000A0007702000891210008770200087702000813
:1000B000770200087702000877020008770200083C
:1000C000770200087702000877020008770200082C
:1000D00077020008CD2400087702000877020008A4
:1000E000770200087702000877020008770200080C
:1000F00077020008770200087702000877020008FC
:1001000077020008770200087702000877020008EB
:1001100077020008770200087702000877020008DB
:1001200077020008770200087702000877020008CB
:1001300077020008770200087702000877020008BB
:1001400077020008770200087702000877020008AB
:10015000770200087702000877020008770200089B
:10016000770200087702000877020008770200088B
:1001700077020008770200087702000800000000FC
:100180007702000877020008DFF80CD000F0ECF8E6
:100190000048004755250008B04400202C4B196842
:1001A0000868B0E8F04F80F30988BFF36F8F4FF015
:1001B000000080F3118870470000000008480068C4
:1001C000006880F308884FF0000080F3148862B65E
:1001D00061B6BFF34F8FBFF36F8F00DF00BF00BF6B
:1001E00008ED00E0DFF80C00016841F470010160E7
:1001F000704700BF88ED00E0EFF30980BFF36F8F19
:10020000134B1A681EF0100F08BF20ED108A20E96A
:10021000F04F106009B44FF0500080F31188BFF325
:100220004F8FBFF36F8F02F051FD4FF0000080F34E
:10023000118809BC19680868B0E8F04F1EF0100F6B
:1002400008BFB0EC108A80F30988BFF36F8F704746
:1002500024000020EFF30580704700000648804727
:1002600006480047FEE7FEE7FEE7FEE7FEE7FEE79B
:10027000FEE7FEE7FEE7FEE78121000889010008AE
:100280002DE9F05F0546002092469B4688460646CB
:10029000814640241BE0284641464746224600F05E
:1002A00053F853465A46C01A914110D31146184686
:1002B000224600F03AF82D1A67EB01084F46224615
:1002C0000120002100F031F817EB00094E41201EFB
:1002D000A4F10104DFDC484631462A464346BDE826
:1002E000F09F40EA01039B0703D009E008C9121FF1
:1002F00008C0042AFAD203E011F8013B00F8013BE0
:10030000521EF9D27047D2B201E000F8012B491E0B
:10031000FBD270470022F6E710B513460A460446A2
:100320001946FFF7F0FF204610BD202A04DB203AD3
:1003300000FA02F1002070479140C2F1200320FA38
:1003400003F3194390407047202A04DB203A21FA36
:1003500002F00021704721FA02F3D040C2F12002DE
:100360009140084319467047064C074D06E0E06887
:1003700040F0010394E8070098471034AC42F6D3EC
:10038000FFF706FF703C0008903C0008464910B596
:100390004A6822F440324A604A6843681A434A6015
:1003A00001684A6822F480724A6001684A680369F9
:1003B00042EA03224A6001684A6822F040724A60B9
:1003C00001684A6883681A434A6001688A6822F4AF
:1003D00000628A6001688A68C3681A438A60816A19
:1003E0006FF07062D14201688A6822F070628A60A0
:1003F00001688A680CD0836A1A438A6001688A6837
:1004000022F040528A6001688A68C36A1A4301E098
:1004100022F040528A6001688A6822F002028A60F3
:1004200001688A68037E42EA43028A6090F82010DD
:10043000002901684A680FD042F400624A600168EE
:100440004A6822F460424A6001684A68174C436A6D
:1004500004EB43331A4301E022F400624A6001686E
:10046000CA6A22F47002CA620168CA6A838B104C9D
:1004700004EB03531A43CA6201688A6822F40072CB
:100480008A6001688A6890F8303042EA43228A60C4
:1004900001688A6822F480628A6001688A6840691B
:1004A00042EA8020886010BD0023014000E0FFFF89
:1004B0000000F0FFFEE7000070B5002400F024F813
:1004C000104D04E0641CA4B2012002F025F8D5F818
:1004D000180210B1642CF5D30DE0642C0BD200246B
:1004E00004E0641CA4B2012002F016F8D5F818024A
:1004F00018B1642C04D3012070BD642CF1D3FAE749
:10050000002070BD0000414200B585B0142168464E
:10051000FFF700FF40200090002001900290022091
:1005200003906946024800F0E7FA05B000BD0000FC
:100530000008024000B585B014216846FFF7EAFEC6
:100540004020009001200190029002200390694613
:10055000024800F0D1FA05B000BD000000080240DA
:1005600070B50024104D04E0641CE4B2012001F0D9
:10057000D3FFD5F8180208B1642CF5D3002404E0A9
:10058000641CE4B2012001F0C7FFD5F8180208B9D5
:10059000642CF5D3282001F0BFFFD5F818020028FD
:1005A00000D0012070BD00000000414270B5002065
:1005B00004464006050EFFF7D3FF641C2843E4B24F
:1005C000082CF6D370BD2DE9FC410D46064600F01F
:1005D00023F8FFF771FF10B10120BDE8FC81002472
:1005E0006F46FFF7E3FF3855641CE4B2052CF8D3DF
:1005F0009DF800109DF801009DF803300A189DF841
:10060000020003441A449DF804309A4201D1297033
:1006100030700020E1E7000010B5FFF78BFF084CB9
:100620000020C4F8980244F6206004F5267401F016
:1006300073FF01202060BDE810401E2001F06CBF58
:1006400000004142704772B6FEE7000010B5064850
:1006500000F066F90A21044800F00CF9024800F0A5
:10066000ABF880B210BD0000EC02002078B5002489
:10067000009490F83C20012A19D0012280F83C20F7
:100680000A6807230568092A13D9EE680A3A02EBBB
:10069000420293409E43EE600B788A680A3B03EB6C
:1006A00043039A400368DD682A43DA6010E00220C1
:1006B00078BD2E6902EB420293409E432E610B7877
:1006C0008A6803EB43039A4003681D692A431A6151
:1006D0004A681F23072A13D205686E6B521E02EB6D
:1006E000820293409E436E630B790A885B1E92B22E
:1006F00003EB83039A4003685D6B2A435A6327E048
:1007000005680D2A12D22E6BD21F02EB8202934093
:100710009E432E630B790A88DB1F92B203EB83039F
:100720009A4003681D6B2A431A6311E0EE6A0D3A82
:1007300002EB820293409E43EE620B790A880D3BE6
:1007400092B203EB83039A400368DD6A2A43DA62BC
:10075000164B0568144A9D4206D10D68122D03D12F
:10076000556845F48005556005689D4218D10B68B1
:10077000102B01D0112B13D1536843F400035360A5
:10078000096810290CD10A490A4A0968B1FBF2F13B
:1007900001EB8101490000E0491E00910029FBD1D5
:1007A00080F83C40002078BD00230140002001403B
:1007B0002000002040420F000068C06C704770B5F8
:1007C00004004FF0000503D0206C002610B107E0B4
:1007D000012070BD204600F01DF8666484F83C607E
:1007E000206CC00610D4206C20F4885040F0020029
:1007F00020642046FFF7CAFD6664206C20F00200EA
:1008000040F00100206400E0012584F83C602846A7
:1008100070BD000010B586B0044614216846FFF78D
:1008200079FD1149206888421CD1104800210268D6
:1008300042F480720260006800F4807005900B48FA
:100840001438026842F001020260006800F0010002
:100850000590102000900320CDE90101694604486D
:1008600000F04AF906B010BD0020014044380240B3
:10087000000002402DE9F041044600680D46816801
:100880004FF0000749050BD58068C00508D5206CDE
:1008900040F02000206484F83C700120BDE8F08125
:1008A00000F02CFA064613E0681C11D025B100F0C8
:1008B00025FA801BA8420BD920680068800707D45E
:1008C000206C40F00400206484F83C700320E5E7CD
:1008D000206800688007E7D521686FF01200086083
:1008E000206C40F4007020642068816811F0405F43
:1008F00013D1217E89B9C16A11F4700F02D08068CA
:1009000040050AD4206C20F480702064206CC00460
:1009100003D4206C40F0010020640020BEE70000FA
:1009200018B50021009190F83C20012A07D001223F
:1009300080F83C2002689368DB0702D011E00220B7
:1009400018BD936843F0010393602E4A2E4B126842
:10095000B2FBF3F202EB420200E0521E0092002AC8
:10096000FBD102689368DB0742D0036C40F201645C
:10097000A34343F48073036453685B0505D5036C9C
:1009800023F4005343F480530364036CDB0404D565
:10099000436C23F00603436400E0416480F83C109C
:1009A0001A496FF02203136049680068CA061849A3
:1009B00006D0884224D1816811F0405F13D01FE037
:1009C0008842F8D0134A904203D1D1F80423D206CA
:1009D000F1D0114A904213D1D1F8041301F01F0154
:1009E0001029E8D30CE0816841F08041816007E084
:1009F000016C41F010010164416C41F0010141645E
:100A0000002018BD2000002040420F0000230140BC
:100A10000020014000210140002201402DE9F04169
:100A20000446876D00F06AF9064694F83500002503
:100A3000022806D08020606584F834500120BDE88B
:100A4000F0812068016821F0160101602068416989
:100A500021F080014161206C08B9A06C20B12068B0
:100A6000016821F0080101602068016821F001019E
:100A700001600CE000F042F9801B052807D9202016
:100A80006065032084F8350084F83450D7E7206887
:100A90000068C007EED194F85C103F208840B86031
:100AA000012084F8350084F834500020C7E790F81E
:100AB0003510022903D080214165012070470521AE
:100AC00080F835100068016821F001010160002004
:100AD0007047000070B5044600F010F90546601C30
:100AE00002D004480078044400F008F9401BA042FA
:100AF000FAD370BD140000202DE9F84FDFF8BCA137
:100B00000022012503264FF00F090AF1040BAAF178
:100B1000040E00BF0B6805FA02F42340A34270D113
:100B20000F7907F00307012F01D0022F16D1876834
:100B30004FEA420806FA08FC27EA0C07D1F80CC075
:100B40000CFA08FC4CEA070CC0F808C04768A74339
:100B50000C79C4F3001494403C4344600C79E443A2
:100B6000A4070AD0C4684FEA420C06FA0CF7BC434B
:100B70008F6807FA0CF72743C7600C7904F0030469
:100B8000022C12D1D40800EB840CDCF8204057076B
:100B9000FF0E09FA07F824EA0804D1F8108008FAD1
:100BA00007F848EA0408CCF8208004684FEA420CB1
:100BB00006FA0CF7BC430F7907F0030707FA0CF7A6
:100BC000274307604C6814F4403F70D03C4C2768C2
:100BD00047F480472760246822F0030704F4804428
:100BE0000094384C07EB040CDCF8084897074FEAF0
:100BF000177809FA08F7BC43334FB84202D10027EF
:100C000024E054E0314FB84201D101271EE0304FBB
:100C1000B84201D1022719E02E4FB84201D1032773
:100C200014E02D4FB84201D104270FE02B4FB842FA
:100C300001D105270AE02A4FB84201D1062705E075
:100C4000284FB84201D1072700E0082707FA08F724
:100C50002743CCF80878DAF800405746D1F804C0AA
:100C60009C435FEACC2C00D51C433C60DBF8004081
:100C70005F46D1F804C09C435FEA8C2C00D51C432E
:100C80003C60DEF800407746D1F804C09C435FEA40
:100C90008C3C00D51C433C60084F083F3C68D1F8B1
:100CA00004C09C435FEACC3C00D51C433C60521C12
:100CB000102AFFF42FAFBDE8F88F0000083C014078
:100CC000443802400030014000000240000402406D
:100CD00000080240000C02400010024000140240D4
:100CE00000180240001C02400069084000D00120AA
:100CF00070470AB1816170470904FBE701488068C9
:100D000070470000140000200248816802781144F6
:100D100081607047140000200B4810B5016841F451
:100D200000710160016841F480610160016841F473
:100D300080710160032000F099F80F2000F006F8A0
:100D400000F04AF8002010BD003C024030B50546D6
:100D50001C4887B00024016841F00101016000686F
:100D600006A900F00100009001A800F02BF900F0A6
:100D70005FF915494000B0FBF1F11548134A491ECF
:100D8000026040F2E732C0E90324C0E90114846143
:100D900000F046FB040012D10D4800F06FFB040088
:100DA0000DD1192000F034F8102D07D20022294669
:100DB000192000F03BF80748056000E0012407B067
:100DC000204630BD4438024040420F000000014040
:100DD00078030020180000200C4882B0016841F41C
:100DE00080410160006800F4804000900748001FC7
:100DF000016841F0805101600068002200F08050DD
:100E000000900F21901E02B000F010B8443802404C
:100E1000002809DB00F01F020121914040098000F9
:100E200000F1E020C0F8001170470000F0B40E4B54
:100E30001B680C46C3F30223C3F10705042D00D938
:100E40000425191D072901D2002300E0DB1E01261D
:100E500006FA05F1491E214099409E40761E164033
:100E60003143F0BC01F039BB0CED00E0064900F065
:100E7000070208684FF6FF03184040EA0220034AC1
:100E800010430860704700000CED00E00000FA0518
:100E90002DE9F0470E46050065D0DFF81481D8F83B
:100EA0000000F7B200F00700B04207D288F80070E7
:100EB000D8F8000000F00700B04254D128683D4C3B
:100EC000810712D5400703D5206840F4E050206028
:100ED0002878000703D5206840F46040206020682F
:100EE000A96820F0F000084320602878C0072DD0C2
:100EF000304968680839012812D0022813D0032825
:100F000011D00968890700292DDA216821F0030131
:100F100001432160FFF7F2FE814641F2883A0EE07C
:100F200009688903EFE709688901ECE7FFF7E6FE46
:100F3000A0EB0901514502D90320BDE8F0872068E4
:100F4000696800F00C00B0EB810FEFD1D8F8001009
:100F5000404601F00701B14207D90770006800F070
:100F60000700B04201D00120E7E72878400705D507
:100F70002068E96820F4E0500843206028780007E2
:100F800006D52068296920F4604040EAC10020604D
:100F900000F05EF82168084AC1F30311515CC840B3
:100FA0000649086006480068FFF7D0FE0020C4E745
:100FB000003C024008380240383C00082000002075
:100FC000180000200F2202600C4A136803F003038C
:100FD0004360136803F0F0038360136803F4E05385
:100FE000C36012684FF4E05303EAD202026104487E
:100FF000006800F0070008607047000008380240F1
:10100000003C0240014800687047000020000020BA
:101010000448054900680968044AC1F38221515C0B
:10102000C84070472000002008380240483C0008B3
:101030000448054900680968044AC1F34231515C1B
:10104000C84070472000002008380240483C000893
:10105000154810B5006810F00C02144813D0411068
:10106000042A0FD0082A0ED10F4C241F22682368AF
:1010700002F03F025B0207D52068C0F38810A0FB96
:10108000010106E0084610BD2168C1F38811A1FBEB
:1010900000010023FFF7F4F82168C1F30141491C66
:1010A0004900B0FBF1F010BD083802400024F40004
:1010B0002DE9F84F04006ED02078DFF84C93C0077C
:1010C000A9F104054AD009F104000168C1F38101C6
:1010D000012908D00068C0F3810002280AD1D9F89C
:1010E0000000400206D52868800337D560680028D4
:1010F000E1D033E06068B0F5803F10D0B0F5A02FAC
:10110000286810D020F480302860286820F48020DF
:1011100028606068A8B1FFF7F1FD06460DE0286879
:1011200040F48030F4E740F480202860F7E700BF07
:10113000FFF7E4FD801B642873D828688003F7D587
:101140000CE0FFF7DBFD064605E000BFFFF7D6FD2C
:10115000801B6428F0D828688003F7D42078DFF853
:10116000AC8280074FF0000A3ED5A748001D0168F9
:1011700011F00C0F08D00068C0F3810002280BD1D9
:10118000D9F80000400207D42868800716D5E06827
:10119000012800D112E033E1E068B8B10120C8F8BD
:1011A0000000FFF7ABFD064605E000BFFFF7A6FD18
:1011B000801B0228C0D828688007F7D528682169D5
:1011C00020F0F80040EAC10028600DE0C8F800A057
:1011D000FFF794FD064604E0FFF790FD801B022810
:1011E0001FD828688007F7D42078000722D5864FBB
:1011F00087486169703771B101210160FFF77EFD99
:10120000064604E0FFF77AFD801B022809D83868FB
:101210008007F7D50EE0C0F800A0FFF76FFD064687
:1012200005E082E0FFF76AFD801B02287DD8386860
:101230008007F7D42078400768D5DFF8CCB10027C5
:101240000BF13C0BDBF80000C0000BD4DBF8001006
:1012500041F08051CBF80010DBF80000012700F0CE
:10126000805000906B4E3068C00510D4306840F458
:1012700080703060FFF742FD009005E0FFF73EFD13
:101280000099401A022850D83068C005F6D55E4E45
:10129000A0686C3601280FD00528306810D020F0E7
:1012A00001003060306820F004003060A068B8B100
:1012B000FFF724FD00900FE0306840F00100F4E7F4
:1012C00040F004003060F7E7FFF718FD0099411A7D
:1012D00041F28830814266D830688007F4D50EE04C
:1012E000FFF70CFD009007E0FFF708FD0099411A99
:1012F00041F28830814256D830688007F4D42FB14B
:10130000DBF8001021F08051CBF80010A069C8B3C1
:101310003D49091D0968C1F3810102294AD002280B
:10132000504607D0C8F8600000E03CE0FFF7E6FC5C
:1013300004463BE04746C8F86000FFF7DFFC06467E
:1013400005E000BFFFF7DAFC801B02282BD82868D5
:101350008001F7D4D4E907010843A16A2E4A49085D
:1013600002EB0141626A41EA8211084394F82C10B1
:1013700040EA0161C9F8001001203866FFF7BEFCA1
:10138000044606E03EE000BFFFF7B8FC001B022861
:1013900009D828688001F7D534E000BFFFF7AEFC1C
:1013A000001B022802D90320BDE8F88F28688001BD
:1013B000F4D427E00128F7D0D9F80000E26900F45E
:1013C000800191421CD1226A00F03F01914217D165
:1013D00047F6C071626A0140B1EB821F10D1A26A68
:1013E0004FF0FF3300F4403103EB5202B1EB024FF8
:1013F00006D194F82C1000F07060B0EB016F01D0B2
:101400000120D1E70020CFE7043802400000474226
:10141000800E4742007000400000FFFF7047704799
:1014200010B5040003D094F83D0010B107E001208E
:1014300010BD002084F83C00204600F01EF8022079
:1014400084F83D00211D206800F0A8FE012084F8EA
:10145000460084F83E0084F83F0084F8400084F899
:10146000410084F8420084F8430084F8440084F882
:10147000450084F83D00002010BD704790F83D10F5
:10148000012901D001207047022180F83D10016838
:10149000CA6842F00102CA6000681149884214D04B
:1014A000B0F1804F11D00F4988420ED00E498842CA
:1014B0000BD00E49884208D00D49884205D00D490D
:1014C000884202D00C49884204D1816801F00701AA
:1014D000062903D0016841F0010101600020704736
:1014E000000001400004004000080040000C0040E3
:1014F000000401400040014000180040704770B5F2
:101500000446006801694FF00005C943890715D4F6
:10151000C168C943890711D4E91E01610120207700
:10152000206880698007204602D0FFF7E7FF04E0CB
:1015300000F098F8204600F096F8257720680169B9
:10154000C943490717D4C168C943490713D46FF089
:1015500004010161022020772068806910F4407F37
:10156000204602D0FFF7CAFF04E000F07BF82046D7
:1015700000F079F8257720680169C943090716D476
:10158000C168C943090712D46FF008010161042042
:1015900020772068C0698007204602D0FFF7AEFFA1
:1015A00004E000F05FF8204600F05DF82577206841
:1015B0000169C943C90617D4C168C943C90613D410
:1015C0006FF010010161082020772068C06910F4D5
:1015D000407F204602D0FFF791FF04E000F042F880
:1015E000204600F040F8257720680169C943C90703
:1015F00008D1C168C943C90704D1891E01612046C9
:1016000000F032F820680169C943090609D4C168AD
:10161000C943090605D46FF0800101612046FFF738
:10162000FDFE20680169C943490609D4C168C94360
:10163000490605D46FF040010161204600F01EF814
:1016400020680169C94389060BD4C168C94389066A
:1016500007D46FF0200101612046BDE87040FFF71C
:10166000DEBE70BD7047704700680349884201D1F3
:10167000FFF74ABB70470000000001407047704709
:1016800070470000F8B5016804460868CA684B69ED
:1016900010F00F0F4FF000055AD003F0010602F4CE
:1016A0009077374365D0C10705D0D10503D5216CAC
:1016B00041F001012164410705D5D90703D0216C10
:1016C00041F002012164810705D5D90703D0216CBF
:1016D00041F004012164010707D502F020013143E4
:1016E00003D0216C41F008012164216C00293BD01A
:1016F000800604D5900602D5204600F0E2FD206861
:101700004069216CC0F3801001F0080101432046BC
:101710002BD000F0AFFD20684069400621D520683D
:10172000143050E8001F21F0400140E80012002A68
:10173000F5D1A06BA8B16C490165A06BFFF7B7F9B3
:10174000002811D0A06B016D01B0BDE8F040084742
:1017500083060ED593060CD52046BDE8F84000F070
:10176000B0BD2046FFF78CFFF8BDFFF789FF256469
:10177000F8BD266B2023012E79D1C60677D5D60673
:1017800075D50868486800904869400640D5A16B47
:10179000086840680004000CEAD0A28D8242E7D9B4
:1017A000E085C869B0F5807F2DD020680C3050E806
:1017B000001F21F4807140E80012002AF5D1206852
:1017C000143050E8001F21F0010140E80012002A07
:1017D000F5D12068143050E8001F21F0400140E8A6
:1017E0000012002AF5D184F83E30256320680C30C1
:1017F00050E8001F21F0100140E80012002AF5D146
:10180000A06BFFF70BF9A08DE18D401A81B229E0A2
:10181000A08DE18D401A81B2E08D0028A8D000296A
:10182000A6D020680C3050E8002F22F4907240E8D7
:101830000026002EF5D12068143050E8002F22F049
:10184000010240E80026002EF5D184F83E302563E1
:1018500020680C3050E8002F22F0100240E80023EE
:10186000002BF5D12046FFF70AFFF8BDFFE705067C
:101870002BD5150629D594F83D002128F5D1A0686F
:10188000B0F5805F01D12069B0B1206A411C2162AE
:10189000216800784860E08C401E0004000CE08461
:1018A000E3D12068C16821F08001C1602068C1686F
:1018B00041F04001C160D8E7206A0088C0F3080009
:1018C0004860206A801C2062E5E74006CDD55006BE
:1018D000CBD5CA68204622F04002CA6084F83D3069
:1018E00000F0CCF8C1E700006522000870B50400E4
:1018F00004D094F83D00002510B106E0012070BD31
:1019000084F83C50204600F023F8242084F83D0061
:101910002068C16821F40051C160204600F032FD0A
:101920002068016921F4904101612068416921F03A
:101930002A0141612068C16841F40051C1602564F9
:10194000202084F83D0084F83E00002070BD000097
:101950002DE9F04186B0044614216846FEF7DAFC12
:101960001E492068884235D11D484FF000080168A3
:1019700041F010010160006800F010000590184867
:101980001438016841F0010101600068022400F090
:10199000010005904FF40070CDE9000402AA012077
:1019A0000325072682E861000E4F69463846FFF797
:1019B000A3F860028DE81101CDE903566946384667
:1019C000FFF79AF8002205212520FFF72FFA25209E
:1019D000FFF71EFA06B0BDE8F081000000100140DC
:1019E000443802400000024090F83E30202B0ED1D7
:1019F00059B152B190F83C30012B08D0012380F846
:101A00003C300023036300F043BD012070470220F7
:101A10007047000010B500681549884226D1154866
:101A2000007831280AD032280BD033280CD0342843
:101A30000DD035280ED036280FD010E000F0BCF8BD
:101A40000DE000F0C1F80AE001F004F807E001F051
:101A500009F804E000F06EFD01E000F073FDBDE860
:101A60001040012203490448FFF7BEBF10BD00002B
:101A7000001001408C000020340300207047FEE776
:101A80002DE9F04106461448016821F44021016027
:101A9000016841F480210160104C0027C4F8A07255
:101AA0003D464FF00108F009C4F8A4027006060E86
:101AB000022000F031FDC4F8A082022000F02CFDCD
:101AC000C4F8A072022000F027FD6D1CEDB2082DB5
:101AD000E9D3BDE8F08100000004024000804042EC
:101AE00070B50D48016821F440210160016841F49E
:101AF00080210160094C0120C4F8A402C4F8A002AE
:101B0000042004F5287400F007FD0025656004201A
:101B100000F002FD256070BD0004024000804042DC
:101B20000E4810B5016821F440210160016841F4BC
:101B3000802101600A4C0020C4F8A002C4F8A4026D
:101B4000042004F5287400F0E7FC012020606060A8
:101B5000BDE81040042000F0DFBC0000000402409B
:101B60000080404270B512480024016821F44021F1
:101B70000160016801600F4D0126C5F8A46230467E
:101B800000F0CAFCC5F8A062012000F0C5FC07E027
:101B9000641CE4B2FA2C03D9FFF7C2FF012070BD28
:101BA000D5F824020028F3D1C5F8A00270BD0000CA
:101BB000000402400080404202488188491C818024
:101BC000704700000000002002488188491E818083
:101BD00070470000000000207FB5002415480094E5
:101BE000019402941249039401604FF48031C0E9DA
:101BF00001140461047680F820400F49C0E90A14FA
:101C00000125C561C46080F830404561FEF7D7FD0D
:101C100008B1FEF718FD0420CDE9000569460294DD
:101C20000448FEF723FD002801D0FEF70CFD7FBD20
:101C300000200140EC0200200100000F10B596B01A
:101C40001C2211496846FEF74CFB0021684600F053
:101C5000ADFC0E4C0C491C22A0601C3107A8FEF7FD
:101C600040FB002107A800F0A1FC0749E0601C220E
:101C700038310EA8FEF735FB00210EA800F096FCC7
:101C8000206116B010BD0000E43B000800000020F9
:101C90002DE9F04186B014216846FEF73BFB2B4846
:101CA0000025016841F004010160016801F00401B0
:101CB0000591016841F080010160016801F0800137
:101CC0000591016841F001010160016801F0010125
:101CD0000591016841F002010160016801F0020113
:101CE0000591016841F0080101600068184F00F09B
:101CF00008004FF486440590012221463846FEF73D
:101D0000F8FFDFF85080012240214046FEF7F1FF46
:101D1000009401240226CDE9024669463846019422
:101D2000FEF7EAFE2002CDE9000569460A48029561
:101D3000FEF7E2FE4020CDE90004CDE90246694607
:101D40004046FEF7D9FE06B0BDE8F08130380240CB
:101D50000004024000080240000C02400C4810B58C
:101D60000A4901604FF416514160002181600C2244
:101D7000C160C0E904128161C161FFF7B7FD0028AD
:101D800003D0BDE81040FEF75EBC10BD001001405E
:101D900034030020FEE7FEE770B506465FF000045E
:101DA00004F1B000C0B200F0F1F8012000F0EEF84C
:101DB000102000F0EBF80025304600F000F96D1C13
:101DC000EDB2802DF8D3641CE4B2082CE8D370BDCA
:101DD00010B54FF4FA70FEF77DFEAE2000F0D6F895
:101DE000002000F0D3F8102000F0D0F8402000F0E0
:101DF000CDF8812000F0CAF8CF2000F0C7F8A1206C
:101E000000F0C4F8C82000F0C1F8A62000F0BEF829
:101E1000A82000F0BBF83F2000F0B8F8D32000F075
:101E2000B5F8002000F0B2F8D52000F0AFF880201F
:101E300000F0ACF8D92000F0A9F8F12000F0A6F8E5
:101E4000DA2000F0A3F8122000F0A0F8DB2000F068
:101E50009DF8402000F09AF8202000F097F802202A
:101E600000F094F88D2000F091F8142000F08EF826
:101E7000A42000F08BF8A62000F088F8AF2000F036
:101E800085F80020FFF788FF0021BDE810400846D4
:101E900000F069B82DE9F0471D4691468846064690
:101EA00026E0691E0A2000F057F8B9FBF0F00A217D
:101EB000B0FBF1F201FB120710377E2E04D908F1B6
:101EC0000100002600F0FF084146304600F04BF8C4
:101ED000094907EB4700002401EB4007385D00F09B
:101EE0006EF8641CE4B2062CF8D3B61DF6B26D1E73
:101EF000002DD6D1BDE8F087CC3300082DE9F0479E
:101F000090468A4605460026DFF848901CE02038B7
:101F1000C7B27E2D04D90AF10100002500F0FF0AA6
:101F20005146284600F01FF807EB4700002409EB54
:101F30004007385D00F043F8641CE4B2062CF8D387
:101F4000AD1D761CEDB2F6B218F806000028DED101
:101F5000BDE8F087CC3300080246012000E0504382
:101F6000491EFCD2704710B50446B031C8B200F02B
:101F70000DF8102040EA141000F008F804F00F00EB
:101F8000BDE8104040F00100AFF3008010B50446FA
:101F9000FFF7A6FD7820FFF773FDFFF7E3FD00B123
:101FA000FEE70020FFF76CFDFFF7DCFD2046FFF7A2
:101FB00067FDFFF7D7FDBDE81040FFF7B1BD10B5D5
:101FC0000446FFF78DFD7820FFF75AFDFFF7CAFDA5
:101FD0004020FFF755FDFFF7C5FD2046FFF750FDF8
:101FE000FFF7C0FDBDE81040FFF79ABD074C4FF466
:101FF0007A750649C91C481EFEF7E5FAE088FEF727
:1020000025FBE080284600F0C5FAF2E7000000203A
:10201000012116A20846FFF771FF16A20221012036
:10202000FFF76CFF15A203210120FFF767FF154C96
:102030004FF47A750423E088A188421801212D20ED
:10204000FFF728FFA07821780423421802212020DE
:10205000FFF720FFE0786178042342180321202055
:10206000FFF718FF284600F095FAE3E7736D6F6BF2
:10207000653A200074656D3A2000000068756D3A7D
:1020800020000000000000204FF480740A4D0B4F28
:10209000A6014FF47A7821462846FEF725FE01284E
:1020A00008D0012231463846FEF723FE404600F0B4
:1020B00071FAF0E70022F5E7000C0240000402404C
:1020C00010B5502080F31188BFF34F8FBFF36F8F8F
:1020D00000F0FCFE18B104494FF080500860002069
:1020E00080F3118810BD000004ED00E030B593B01E
:1020F00030216846FEF70EF914210CA8FEF70AF904
:102100001D480025016841F080510160006800F021
:10211000805011901948016841F4804101600068C5
:10212000022400F4804011900120009000040190EE
:102130008001CDE9064008AA0420A82182E8130006
:102140000B906846FEF7B4FF08B172B6FEE70CA923
:102150000F2081E831004FF4A0500F904FF48050D1
:10216000109005210CA8FEF793FE002801D072B64E
:10217000FEE713B030BD0000403802400070004060
:102180000248016841F470010160704788ED00E089
:102190000148FFF7B4B9000078030020F0B50268E9
:1021A000254C264D264E274F274B4FF0804CA04202
:1021B00009D0604507D0A84205D0B04203D0B8424C
:1021C00001D0984204D122F0700E4A6842EA0E0211
:1021D000A0421BD0604519D0A84217D0B04215D0FC
:1021E000B84213D0984211D0184DA8420ED0184DC5
:1021F000A8420BD0174DA84208D0174DA84205D0D1
:10220000164DA84202D0164DA84203D122F44075C3
:10221000CA682A434D6922F080022A4302608A6814
:10222000C2620A688262A04201D0984201D1096963
:10223000016301214161F0BD000001400004004044
:1022400000080040000C0040000401400040014034
:10225000004401400048014000180040001C0040BC
:102260000020004010B5806B0021C185C184FFF7BC
:1022700007FA10BD01680C3151E8002F22F490726A
:1022800041E80023002BF5D10168143151E8002FFB
:1022900022F0010241E80023002BF5D1016B012956
:1022A00009D101680C3151E8002F22F0100241E8F9
:1022B0000023002BF5D1202180F83E10002101637E
:1022C000704708B590F83E10222901D0022008BDC1
:1022D00082684FF480539A4201D1016921B1816A29
:1022E0009A421BD04AB10AE00268816A5268C2F37E
:1022F00008020A80816A891C08E0026972B10268DA
:10230000526802F07F020A70816A491C8162C18DA5
:10231000491E0904090CC18503D019E002685268FE
:10232000F1E70168CA6822F02002CA600168CA6841
:1023300022F48072CA6001684A6922F001024A618F
:10234000202180F83E10016B012903D0FFF762FBCA
:10235000002008BD0021016301680C3151E8002F05
:1023600022F0100241E80023002BF5D101680A6831
:10237000D20602D50A6849680091818DFFF77FF97E
:10238000E6E7000070B5044600680169E26821F4E0
:102390004051114301612169A068E2690843616904
:1023A000114308432168CA6849F20C639A43024307
:1023B000CA6020684169A26921F4407111434161FA
:1023C00031492068884202D03049884202D1FEF764
:1023D0002FFE01E0FEF71CFEE269002319216425AF
:1023E0003226B2F5004F626828D0A0FB0101930F9E
:1023F0009200FDF745FF0146B0FBF5F06FF01802C3
:10240000504301EB800006EB0010B0FBF5F000F04C
:10241000F002B1FBF5F002EB0012B1FBF5F06FF04A
:102420001803584301EB800006EB0010B0FBF5F0F9
:1024300000F00F0021681044886070BDA0FB01010E
:1024400092185B41FDF71CFF0146B0FBF5F002015D
:10245000B1FBF5F06FF01803584301EB800006EB79
:10246000C000B0FBF5F000F0F80002EB4002B1FB59
:10247000F5F0584301EB800006EBC000B0FBF5F02F
:1024800000F00700D6E700000010014000140140F2
:1024900081628285C28500210164222280F83E206B
:1024A00080F83C10016921B10168CA6842F4807269
:1024B000CA6001684A6942F001024A610068C16865
:1024C00041F02001C1600020704700000148FFF783
:1024D000D9B8000034030020FEE70907090E0028E0
:1024E00004DB00F1E02080F80014704700F00F00DA
:1024F00000F1E02080F8141D704702E008C8121FA8
:1025000008C1002AFAD170477047002001E001C1DC
:10251000121F002AFBD1704710B50446FEF772FD6A
:102520000349B0FBF1F16143491EFDD210BD00002B
:1025300000093D0002484178491C41707047000085
:102540000000002002484178491E41707047000099
:1025500000000020FEF7E0FBFFF7C8FDFFF798FB47
:10256000FFF73AFBFFF7FAFBFFF732FC01220449C1
:102570000448FFF739FAFFF761FB00F012F8FEE7B5
:102580008C0000203403002001460020842900D064
:10259000C81C704710B500B9012000F033FB0020C3
:1025A00010BD10B500F054FB002010BD7FB50D46E6
:1025B00004464169B0F9080081B1A16971B1FFF722
:1025C000E3FFD4E905128DE80700D4E900102B469B
:1025D000226900F050FC039004B070BDFFF7D4FFF7
:1025E00003A9CDE90001208A2B4682B2D4E900106C
:1025F00000F014FC012801D00020EDE70398EBE780
:102600002DE9F041184C0F460546E6682068001D8C
:1026100000F030FA38B9206890F82C10012088407A
:10262000216981432161681C07D137B12168BDE868
:10263000F0410E48091D00F061BA20683544B542EA
:102640004560216805D2A06BBDE8F041091D00F08E
:102650003DBA606B091D00F039FAA06A854200D2CC
:10266000A562BDE8F0810000240000209C04002049
:102670002DE9F041054600F04DFA2E4CA068401CB3
:10268000A06020682C4F10B1606940B32DE0256038
:10269000A068012829D1002606EB860007EB800000
:1026A00000F006FA761C072EF6D323488C3000F093
:1026B000FFF92148A03000F0FBF91F48B43000F0CA
:1026C000F7F91D48C83000F0F3F91B48DC3000F082
:1026D000EFF919488C3060631430A06305E020687E
:1026E000E96AC06A884200D82560606A401C60625E
:1026F000E96A0120226988401043206101EB8100D2
:1027000007EB8000291D00F0F9F900F023FA606959
:1027100000280CD02068E96AC06A884207D20749BD
:102720004FF080500860BFF34F8FBFF36F8FBDE84D
:10273000F081000024000020C003002004ED00E030
:1027400010B5044690F8510058B101280CD0022869
:102750000FD0502080F31188BFF34F8FBFF36F8FDE
:10276000FEE7206B00F00AFA2046BDE8104000F0BA
:1027700005BA10BD10484FF47051420706D0C01D75
:102780000D4920F00700411AC1F570510B4A002392
:102790000144C2E900030839183A21F00701116029
:1027A0004B600B600B1AC0E9001393604FF00040C0
:1027B0005360506170470000B00400207800002092
:1027C000144E154CA6F1C8074FF08058DFF84C9016
:1027D00012E000BF00F09EF9F068C568281D00F007
:1027E00049F9A068401EA0606068401E606000F06B
:1027F000B1F92846FFF7A4FF60680028EAD13868DD
:102800000128F9D9C9F80080BFF34F8FBFF36F8F4C
:10281000F2E70000880400202400002004ED00E01E
:102820002DE9F0479A46DDE9098481466FF00303FC
:10283000206B03EB82021044089E20F00707780704
:1028400007D0502080F31188BFF34F8FBFF36F8FF5
:10285000FEE7002561B1002023180A5C83F83420CC
:102860000A5C12B1401C1028F6D384F8435001E0F2
:1028700084F83450072E00D30626E662C4E91165B9
:10288000201D00F020F904F1180000F01CF924616B
:10289000C6F107006462A061E56484F850505246B6
:1028A0004946384600F0C0F82060B8F1000F01D06A
:1028B000C8F80040BDE8F08730B5114900E0114686
:1028C0000A688242FBD34B685C18844203D140689B
:1028D00018444860084643681C18944209D1084CC3
:1028E000183C2468A24209D052681A4442600A681F
:1028F00012680260814200D0086030BD0460F9E7D0
:10290000780000200648416B096829B1416BC9680D
:10291000C9684968816270474FF0FF31FAE70000EB
:102920002400002008484068401C4FF0500080F30D
:10293000118804D0BFF34F8FBFF36F8FFEE7BFF353
:102940004F8FBFF36F8FFEE7800000202DE9F0412D
:102950000546002700F0B2F9324E306808B9FFF79B
:1029600009FF706905424ED1C5B3083568070ED01E
:1029700005F00700C0F108000544680707D05020A3
:1029800080F31188BFF34F8FBFF36F8FFEE72DB336
:102990007068854237D82348183001460C6801E03A
:1029A00020460C466168A94202D221680029F7D16D
:1029B00031688C4227D00768216801606068083759
:1029C000411B10290FD96019420708D0502080F30D
:1029D0001188BFF34F8FBFF36F8FFEE713E04160A5
:1029E0006560FFF769FF61687068401A7060B268DF
:1029F000904200D2B060706901430020C4E9000138
:102A0000F068401CF06000F0C7FA780707D050204B
:102A100080F31188BFF34F8FBFF36F8FFEE7384607
:102A2000BDE8F0816000002010B5031F4FF08074F6
:102A30001C601B1F21F001011960191F044B0B6062
:102A400014390A60091F6FF0020244380A6010BD91
:102A50002529000802480178491C017070470000D0
:102A60000000002002480178491E017070470000F4
:102A700000000020D0E9013201699A60D0E9012309
:102A80005A604A68824201D182684A60002202612B
:102A90000868401E0860086870470000034B036028
:102AA00003F15400086080201060704798000020F7
:102AB00000F108014FF0FF32C0E90112C16001616D
:102AC00000210160704700210161704730B50B683B
:102AD0005A1C02D000F1080202E0026904E022461A
:102AE000546825689D42FAD953684B6099608A60A2
:102AF000516008610168491C016030BD42684A604C
:102B000093688B6093685960916008610168491C03
:102B100001607047502080F31188BFF34F8FBFF3DF
:102B20006F8F0A494868401C486001280CD108484A
:102B3000006810F0FF0F07D0502080F31188BFF31A
:102B40004F8FBFF36F8FFEE77047000080000020BB
:102B500004ED00E00849486828B1401E486001D1F2
:102B600080F311887047502080F31188BFF34F8F96
:102B7000BFF36F8FFEE700008000002070B50028D3
:102B80002AD0164DA0F1080460686969084207D18F
:102B9000502080F31188BFF34F8FBFF36F8FFEE794
:102BA00022683AB1502080F31188BFF34F8FBFF3F2
:102BB0006F8FFEE78843606000F080F860686968A6
:102BC000084468602046FFF777FE2869401C2861AA
:102BD000BDE8704000F0E0B970BD0000600000206A
:102BE0004FF0E02000210161816105494FF47A72C4
:102BF0000968B1FBF2F1491E41610721016170478B
:102C00002000002010B5020014D00F48006B38B12E
:102C1000502080F31188BFF34F8FBFF36F8FFEE713
:102C200000F04CF800211046FFF7EAFC00F0B4F980
:102C3000002807D105494FF080500860BFF34F8F3F
:102C4000BFF36F8F10BD00002400002004ED00E0F2
:102C500010B586B00024039405AA04A903A804941F
:102C6000FFF71CFFDDE903010094CDE9011000230B
:102C70000EA11048059A00F0FEF80F490028C8621E
:102C800011D0502080F31188BFF34F8FBFF36F8FA7
:102C90004FF0FF30886201204861CC6006B0BDE88B
:102CA000104000F041B806B010BD000049444C454A
:102CB00000000000C1270008240000200248016B2A
:102CC000491C016370470000240000201448016B78
:102CD00011B10121C16170470021C1610169B1FADF
:102CE00081F1C1F11F0101EB81020E4951F822303F
:102CF0006BB101EB820101F108034A6852684A6036
:102D00009A4201D152684A60D168016070475020F0
:102D100080F31188BFF34F8FBFF36F8FFEE7000082
:102D200024000020C00300201CB537480168374A42
:102D3000914207D1502080F31188BFF34F8FBFF32A
:102D40006F8FFEE700683149491E884207D1502045
:102D500080F31188BFF34F8FBFF36F8FFEE72C49CD
:102D600008780190FF20087008788DF800009DF821
:102D700000009DF8002000F0F000904207D05020A5
:102D800080F31188BFF34F8FBFF36F8FFEE79DF87D
:102D90000000204C00F0500020700720A06005E0EB
:102DA0009DF8002052008DF80020401E9DF8002064
:102DB0001206F5D4A060032807D0502080F31188B4
:102DC000BFF34F8FBFF36F8FFEE74FF44070A060EB
:102DD000019808700C482030016841F470010160CE
:102DE000016841F070410160FFF7FAFE0020606069
:102DF000FDF7F8F90848016841F040410160FDF72E
:102E0000DDF900201CBD000000ED00E071C20F41A3
:102E100000E400E08000002034EF00E02DE9FF5FD7
:102E20008346DDE90E87994616468A469000FFF7ED
:102E30008DFD05001CD05420FFF788FD040014D040
:102E40000020256384F85100CDE90240CDE90087D8
:102E50004B46324651465846FFF7E2FC2046FFF704
:102E600007FC012004B0BDE8F09F2846FFF786FE6E
:102E70004FF0FF30F6E7F0B585B0DDE90B640A9D51
:102E8000A6B1DCB1542700972663022684F851606E
:102E9000002604AFCDE90246CDE90057FFF7C0FC9C
:102EA0002046FFF7E5FB049805B0F0BD502080F305
:102EB0001188BFF34F8FBFF36F8FFEE7502080F371
:102EC0001188BFF34F8FBFF36F8FFEE72DE9F041FD
:102ED0002F4C0026206B28B1A069401CA061304611
:102EE000BDE8F081E5686D1CE56013D1606B00689A
:102EF00038B1502080F31188BFF34F8FBFF36F8F2D
:102F0000FEE7606BA16B6163A063206A401C2062D6
:102F1000FFF7F8FCA06ADFF87C80854209D3606B7C
:102F20000068A0B1606BC068C7687868854211D23C
:102F3000A0622068C06A00EB800158F821000128D7
:102F400000D90126E0690028C9D00126C7E74FF063
:102F5000FF30EDE7381DFFF78DFDB86A18B107F1B6
:102F60001800FFF787FDF96A0120226988401043A5
:102F7000206101EB810108EB8100391DFFF7BEFDE7
:102F8000F86A2168C96A8842C9D30126C7E70000E8
:102F900024000020C00300202DE9F0472C4D002420
:102FA0002746286B38B1FFF7B5FD286B401E286314
:102FB000286B40B146E0502080F31188BFF34F8F5B
:102FC000BFF36F8FFEE7A968224E0120D1B3A6F1AF
:102FD000B40980463068E8B1F068C46804F11800AC
:102FE000FFF748FD201DFFF745FDE06A2A6908FA52
:102FF00000F11143296100EB800109EB8100211DE3
:10300000FFF77CFDE06A2968C96A8842E2D3C5F807
:103010001C80DFE70CB1FFF775FCAC6944B1464694
:10302000FFF754FF00B1EE61641EF9D10020A861E2
:10303000E86938B10849012738070860BFF34F8FA6
:10304000BFF36F8FFFF786FD3846BDE8F0870000BD
:10305000240000207404002004ED00E000000000C3
:103060000000000000000000000000000000000060
:103070000000000000000000000000000000007FD1
:103080007F0406033F7F4040407878000000000046
:103090000000000000000000000000000000000030
:1030A0000000000000000000000000000000000020
:1030B0000000000000000000000000000000000010
:1030C00000000000000000000000000010218670D9
:1030D000007E4A4A4A4A4A7E0000000002FE014041
:1030E0007F41417F41417F41417F40000000FC041E
:1030F0002424FCA5A6A4FC242424040080601F80B2
:103100008042462A12122A2642C04000080808FFC0
:103110008848009848280A2C48D808000242817F35
:103120000000404242427E424242400000504F4A2C
:1031300048FF48484800FC0000FF000000003F0135
:1031400001FF21613F000F40807F000000908CA4B0
:10315000A4A4A5A6A4A4A4A4948C04000080402048
:1031600018070000003F404040700000000474D485
:10317000FFD47404100CB744B40C04000042437A2A
:103180004342437E4B4B4A4A424301000808080829
:103190000808F94A4C4848C8080808004040201070
:1031A0000C0300002040403F0000000000202C24C1
:1031B0006474ADA6E43424242C24000000242425C7
:1031C00015150DFE040D171424642400000000F8EA
:1031D00048484C4B4A484848F8000000000000FFAF
:1031E0004444444444444444FF000000202424E474
:1031F000242424201010FF1010F00000081C0B08DD
:103200000C054E24100C0320403F0000080808FF66
:103210008848009848280A2C48D808000242817F34
:103220000000404242427E424242400000504F4A2B
:1032300048FF48484800FC0000FF000000003F0134
:1032400001FF21613F000F40807F00000807FAAABC
:10325000AEAAAAA8ACABAAFE0A02020008088B6AB2
:103260001E0A0A0A0AFE0A0B08080800106001C6B6
:103270003000101010FF1010101000000404FE01A8
:10328000004161514D43414151E101004041CE04B3
:10329000008040BE828282BEC040400000007F208D
:1032A000908040432C10102C43C0400020212EE47D
:1032B000000020202020FF20202020000000007F90
:1032C000201008000000FF00000000000000F84887
:1032D000484848FF48484848F800000000000F04EC
:1032E0000404043F444444444F4070000000020280
:1032F000020202E2120A060200800000010101013E
:103300000141817F01010101010101000020202212
:1033100022E2222222E2222222202000004020104B
:103320000C030000003F4040404070004020F80F78
:1033300082601E1410FF1010101000000000FF002B
:103340000101010101FF0101010101000000000074
:103350007E4848484848484848CC080000040404CF
:103360000404040404244644201F0000849494FFB1
:10337000949480242424FC1213120000201806FFC9
:10338000021C0A0202023F41414171001010D0FEAE
:10339000509000101010D0FE10101000080601FF11
:1033A000000110080443807F000000009088A7A25D
:1033B000A6BAA2F8A7A2A6BAA282800000040404BA
:1033C000040C340444847F04040400000000000062
:1033D00000000000002F000000000700070000149C
:1033E0007F147F1400242A7F2A12006264081323AA
:1033F00000364955225000000503000000001C2241
:103400004100000041221C000014083E081400087E
:10341000083E0808000000A060000008080808082E
:10342000000060600000002010080402003E5149C6
:10343000453E0000427F4000004261514946002164
:1034400041454B31001814127F100027454545397E
:10345000003C4A49493000017109050300364949D9
:10346000493600064949291E000036360000000092
:1034700056360000000814224100001414141414DD
:103480000000412214080002015109060032495986
:10349000513E007C1211127C007F49494936003EA2
:1034A00041414122007F4141221C007F494949415D
:1034B000007F09090901003E4149497A007F080857
:1034C000087F0000417F4100002040413F01007F14
:1034D00008142241007F40404040007F020C027FE0
:1034E000007F0408107F003E4141413E007F0909F2
:1034F0000906003E4151215E007F09192946004618
:10350000494949310001017F0101003F4040403FEE
:10351000001F2040201F003F4038403F0063140838
:103520001463000708700807006151494543000013
:103530007F41410000552A552A55000041417F0036
:10354000000402010204004040404040000001022B
:103550000400002054545478007F48444438003814
:103560004444442000384444487F0038545454189C
:1035700000087E0901020018A4A4A47C007F0804AE
:1035800004780000447D4000004080847D00007F7E
:10359000102844000000417F4000007C041804789B
:1035A000007C0804047800384444443800FC242497
:1035B00024180018242418FC007C0804040800487F
:1035C0005454542000043F444020003C4040207CA0
:1035D000001C2040201C003C4030403C004428108F
:1035E0002844001CA0A0A07C004464544C44141443
:1035F000141414140000000000000000000000007B
:1036000000000000000000F800000000000000338F
:103610003000000000100C06100C06000000000036
:103620000000000040C07840C0784000043F04041F
:103630003F040400007088FC08300000001820FFE0
:10364000211E0000F008F000E018000000211C031B
:103650001E211E0000F00888700000001E21232497
:103660001927211010160E000000000000000000B5
:1036700000000000000000E0180402000000000745
:103680001820400000020418E0000000004020184C
:1036900007000000404080F0804040000202010F1F
:1036A00001020200000000F0000000000101011F03
:1036B00001010100000000000000000080B0700067
:1036C00000000000000000000000000000010101F7
:1036D0000101010100000000000000000030300086
:1036E0000000000000000000806018040060180660
:1036F0000100000000E010080810E000000F10209A
:1037000020100F00001010F8000000000020203FE3
:10371000202000000070080808887000003028246D
:10372000222130000030088888483000001820200E
:1037300020110E000000C02010F800000007042433
:10374000243F240000F80888880808000019212078
:1037500020110E0000E0108888180000000F1120D2
:1037600020110E0000380808C83808000000003F8B
:10377000000000000070880808887000001C2221EA
:1037800021221C0000E010080810E0000000312297
:1037900022110F00000000C0C00000000000003037
:1037A0003000000000000080000000000000806089
:1037B000000000000000804020100800000102040A
:1037C00008102000404040404040400004040404F1
:1037D00004040400000810204080000000201008AD
:1037E00004020100007048080808F00000000030E2
:1037F00036010000C030C828E810E0000718272470
:1038000023140B000000C038E0000000203C23021D
:103810000227382008F8888888700000203F202080
:1038200020110E00C03008080808380007182020B2
:103830002010080008F808080810E000203F2020A9
:1038400020100F0008F88888E8081000203F20208A
:103850002320180008F88888E8081000203F20007E
:1038600003000000C03008080838000007182020B6
:10387000221E020008F808000008F808203F210175
:1038800001213F20000808F8080800000020203F20
:103890002020000000000808F8080800C080808090
:1038A0007F00000008F888C028180800203F200189
:1038B0002638200008F8080000000000203F2020E3
:1038C0002020300008F8F800F8F80800203F003FFA
:1038D000003F200008F830C00008F808203F200012
:1038E00007183F00E01008080810E0000F10202023
:1038F00020100F0008F808080808F000203F2101F8
:1039000001010000E01008080810E0000F1824244E
:1039100038504F0008F8888888887000203F2000C1
:10392000030C302000708808080838000038202177
:1039300021221C00180808F8080818000000203F81
:103940002000000008F808000008F808001F2020E8
:1039500020201F000878880000C8380800000738B9
:103960000E010000F80800F80008F800033C07000A
:10397000073C0300081868808068180820302C0372
:10398000032C30200838C800C83808000000203F49
:103990002000000010080808C83808002038262138
:1039A00020201800000000FE020202000000007F3C
:1039B00040404000000C30C000000000000000014A
:1039C0000638C00000020202FE0000000040404035
:1039D0007F0000000000040202020400000000005A
:1039E00000000000000000000000000080808080D7
:1039F00080808080000202040000000000000000BF
:103A00000000000000008080808000000019242257
:103A100022223F2008F8008080000000003F112093
:103A200020110E000000008080800000000E112098
:103A300020201100000000808088F800000E112076
:103A400020103F200000808080800000001F222284
:103A500022221300008080F0888888180020203FF0
:103A6000202000000000808080808000006B949403
:103A70009493600008F8008080800000203F2100BF
:103A800000203F2000809898000000000020203F88
:103A900020200000000000809898000000C0808076
:103AA000807F000008F8000080808000203F240212
:103AB0002D302000000808F8000000000020203F02
:103AC000202000008080808080808000203F2000B7
:103AD0003F20003F8080008080800000203F210048
:103AE00000203F200000808080800000001F2020F8
:103AF00020201F00808000808000000080FFA12027
:103B000020110E000000008080808000000E112037
:103B100020A0FF80808080008080800020203F21C6
:103B20002000010000008080808080000033242479
:103B300024241900008080E0808000000000001F25
:103B4000202000008080000000808000001F2020D6
:103B500020103F20808080000080808000010E3097
:103B60000806010080800080008080800F300C03F8
:103B70000C300F0000808000808080000020312EFB
:103B80000E312000808080000080808080818E70D7
:103B90001806010000808080808080000021302C89
:103BA0002221300000000000807C020200000000A2
:103BB000003F404000000000FF0000000000000047
:103BC000FF0000000002027C800000000040403F37
:103BD00000000000000601010202040400000000D1
:103BE00000000000503C0008ED1F0008000000002D
:103BF0000000000080000000000000000000000045
:103C0000583C0008112000080000000000000000DF
:103C1000800000000000000000000000643C00087C
:103C20008920000800000000000000008000000063
:103C30000000000000000000000000000000000084
:103C40000102030406070809000000000102030442
:103C5000474554444154410053484F57444154410F
:103C6000000000004C45545F4C45445F4F4E00003F
:103C7000903C0008000000208C000000FA2400089E
:103C80001C3D00088C000020244400000A25000888
:103C90000000000000000000000000000000000024
:103CA0000000000001000000100000000000000003
:103CB0000024F400000000000000000000000000EC
:103CC00000000000000000000000000000000000F4
:103CD00000000000000000000000000000000000E4
:103CE00000000000000000000000000000000000D4
:103CF00000000000000000000000000000000000C4
:103D000000000000000000000000000000000000B3
:0C3D100000000000AAAAAAAA00000000FF
:040000050800018965
:00000001FF
