:020000040800F2
:10000000D80500209D01000857240008531F000850
:1000100055240008D1030008792D000800000000D5
:10002000000000000000000000000000AF260008F3
:100030006105000800000000AD260008B126000898
:10004000B7010008B7010008B7010008B7010008B0
:10005000B7010008B7010008B7010008B7010008A0
:10006000B7010008B7010008B7010008B701000890
:10007000B7010008B7010008B7010008B701000880
:10008000B7010008B7010008B7010008B701000870
:10009000B7010008B7010008B7010008B701000860
:1000A000B701000859270008B7010008B701000888
:1000B000B7010008B701000865270008B70100086C
:1000C000B7010008B7010008B7010008B701000830
:1000D000B7010008612D00086D2D0008B701000868
:1000E000B7010008B7010008B7010008B701000810
:1000F000B7010008B7010008B7010008B701000800
:10010000B7010008B7010008B7010008B7010008EF
:10011000B7010008B7010008B7010008B7010008DF
:10012000B7010008B7010008B7010008B7010008CF
:10013000B7010008B7010008B7010008B7010008BF
:10014000B7010008B7010008B7010008B7010008AF
:10015000B7010008B7010008B7010008B70100089F
:10016000B7010008B7010008B7010008B70100088F
:10017000B7010008B7010008B7010008000000003F
:10018000B7010008B7010008DFF80CD000F07AF8DA
:1001900000480047692E0008D8050020064880471F
:1001A00006480047FEE7FEE7FEE7FEE7FEE7FEE75C
:1001B000FEE7FEE7FEE7FEE74927000889010008A1
:1001C0002DE9F05F0546002092469B46884606468C
:1001D000814640241BE0284641464746224600F01F
:1001E00041F853465A46C01A914110D31146184659
:1001F000224600F028F82D1A67EB01084F462246E8
:100200000120002100F01FF817EB00094E41201ECD
:10021000A4F10104DFDC484631462A464346BDE8E6
:10022000F09FD2B201E000F8012B491EFBD27047CB
:100230000022F6E710B513460A4604461946FFF7B2
:10024000F0FF204610BD202A04DB203A00FA02F11C
:10025000002070479140C2F1200320FA03F31943B4
:1002600090407047202A04DB203A21FA02F0002156
:10027000704721FA02F3D040C2F1200291400843B6
:1002800019467047064C074D06E0E06840F0010350
:1002900094E8070098471034AC42F6D3FFF778FF94
:1002A000E03A0008003B0008464910B54A6822F4CD
:1002B00040324A604A6843681A434A6001684A68A3
:1002C00022F480724A6001684A68036942EA0322A4
:1002D0004A6001684A6822F040724A6001684A68D0
:1002E00083681A434A6001688A6822F400628A605F
:1002F00001688A68C3681A438A60816A6FF0706215
:10030000D14201688A6822F070628A6001688A6856
:100310000CD0836A1A438A6001688A6822F04052CE
:100320008A6001688A68C36A1A4301E022F0405279
:100330008A6001688A6822F002028A6001688A681D
:10034000037E42EA43028A6090F820100029016887
:100350004A680FD042F400624A6001684A6822F499
:1003600060424A6001684A68174C436A04EB4333B1
:100370001A4301E022F400624A600168CA6A22F46A
:100380007002CA620168CA6A838B104C04EB035383
:100390001A43CA6201688A6822F400728A6001689E
:1003A0008A6890F8303042EA43228A6001688A689D
:1003B00022F480628A6001688A68406942EA80208B
:1003C000886010BD0023014000E0FFFF0000F0FF47
:1003D000FEE7000070B5002400F024F8104D04E0A2
:1003E000641CA4B2012002F0E7FCD5F8240210B18D
:1003F000642CF5D30DE0642C0BD2002404E0641CC3
:10040000A4B2012002F0D8FCD5F8240218B1642C63
:1004100004D3012070BD642CF1D3FAE7002070BD35
:100420000000434200B585B014216846FFF700FF85
:100430004FF4007000900020019002900220039081
:100440006946024800F0E6FA05B000BD0018024017
:1004500000B585B014216846FFF7EAFE4FF400703E
:10046000009001200190029002200390694602480A
:1004700000F0D0FA05B000BD0018024070B50024AD
:10048000104D04E0641CE4B2012002F095FCD5F8A4
:10049000240208B1642CF5D3002404E0641CE4B207
:1004A000012002F089FCD5F8240208B9642CF5D3A8
:1004B000282002F081FCD5F82402002800D0012079
:1004C00070BD00000000434270B5002004464006A5
:1004D000050EFFF7D3FF641C2843E4B2082CF6D3C3
:1004E00070BD2DE9FC410D46064600F023F8FFF7EC
:1004F00071FF10B10120BDE8FC8100246F46FFF7B9
:10050000E3FF3855641CE4B2052CF8D39DF80010C5
:100510009DF801009DF803300A189DF8020003447D
:100520001A449DF804309A4201D12970307000209D
:10053000E1E7000010B5FFF78BFF084C0020C4F87E
:10054000A402142004F5297400F052FA012020605E
:10055000BDE810401E2002F02FBC00000000434206
:10056000704772B6FEE7000010B5064800F066F965
:100570000A21044800F00CF9024800F0ABF880B200
:1005800010BD00002C00002078B50024009490F8E5
:100590003C20012A19D0012280F83C200A68072358
:1005A0000568092A13D9EE680A3A02EB4202934021
:1005B0009E43EE600B788A680A3B03EB43039A4044
:1005C0000368DD682A43DA6010E0022078BD2E69F6
:1005D00002EB420293409E432E610B788A6803EB44
:1005E00043039A4003681D692A431A614A681F231E
:1005F000072A13D205686E6B521E02EB82029340EB
:100600009E436E630B790A885B1E92B203EB8303F1
:100610009A4003685D6B2A435A6327E005680D2AF8
:1006200012D22E6BD21F02EB820293409E432E63A6
:100630000B790A88DB1F92B203EB83039A400368AD
:100640001D6B2A431A6311E0EE6A0D3A02EB820237
:1006500093409E43EE620B790A880D3B92B203EB06
:1006600083039A400368DD6A2A43DA62164B056801
:10067000144A9D4206D10D68122D03D1556845F4E8
:100680008005556005689D4218D10B68102B01D07C
:10069000112B13D1536843F40003536009681029E8
:1006A0000CD10A490A4A0968B1FBF2F101EB810158
:1006B000490000E0491E00910029FBD180F83C4030
:1006C000002078BD002301400020014014000020DC
:1006D00040420F000068C06C704770B504004FF0D6
:1006E000000503D0206C002610B107E0012070BD8A
:1006F000204600F01DF8666484F83C60206CC0065B
:1007000010D4206C20F4885040F002002064204671
:10071000FFF7CAFD6664206C20F0020040F0010083
:10072000206400E0012584F83C60284670BD00008C
:1007300010B586B0044614216846FFF779FD1149CB
:10074000206888421CD110480021026842F480725F
:100750000260006800F4807005900B48143802684D
:1007600042F001020260006800F0010005901020D4
:1007700000900320CDE901016946044800F04AF9E0
:1007800006B010BD00200140443802400000024085
:100790002DE9F041044600680D4681684FF00007DE
:1007A00049050BD58068C00508D5206C40F02000B5
:1007B000206484F83C700120BDE8F08100F028FA44
:1007C000064613E0681C11D025B100F021FA801B09
:1007D000A8420BD920680068800707D4206C40F03D
:1007E0000400206484F83C700320E5E7206800687A
:1007F0008007E7D521686FF012000860206C40F494
:10080000007020642068816811F0405F13D1217E60
:1008100089B9C16A11F4700F02D0806840050AD40A
:10082000206C20F480702064206CC00403D4206C01
:1008300040F0010020640020BEE7000018B5002150
:10084000009190F83C20012A07D0012280F83C203A
:1008500002689368DB0702D011E0022018BD93689C
:1008600043F0010393602E4A2E4B1268B2FBF3F261
:1008700002EB420200E0521E0092002AFBD1026805
:100880009368DB0742D0036C40F20164A34343F456
:100890008073036453685B0505D5036C23F4005330
:1008A00043F480530364036CDB0404D5436C23F0EE
:1008B0000603436400E0416480F83C101A496FF07D
:1008C0002203136049680068CA06184906D08842A6
:1008D00024D1816811F0405F13D01FE08842F8D026
:1008E000134A904203D1D1F80423D206F1D0114A21
:1008F000904213D1D1F8041301F01F011029E8D35D
:100900000CE0816841F08041816007E0016C41F0BA
:1009100010010164416C41F001014164002018BDE7
:100920001400002040420F0000230140002001403D
:1009300000210140002201402DE9F0410446876D6D
:1009400000F066F9064694F835000025022806D026
:100950008020606584F834500120BDE8F081206873
:10096000016821F0160101602068416921F08001D1
:100970004161206C08B9A06C20B12068016821F0A9
:10098000080101602068016821F0010101600CE0AC
:1009900000F03EF9801B052807D920206065032060
:1009A00084F8350084F83450D7E720680068C00721
:1009B000EED194F85C103F208840B860012084F8A4
:1009C000350084F834500020C7E790F8351002292C
:1009D00003D08021416501207047052180F8351042
:1009E0000068016821F001010160002070470000EB
:1009F00070B5044600F00CF90546601C02D00448AE
:100A00000078044400F004F9401BA042FAD370BD02
:100A1000080000202DE9F84FDFF8BCA100220125D5
:100A200003264FF00F090AF1040BAAF1040E00BFD0
:100A30000B6805FA02F42340A34270D10F7907F046
:100A40000307012F01D0022F16D187684FEA420811
:100A500006FA08FC27EA0C07D1F80CC00CFA08FCCF
:100A60004CEA070CC0F808C04768A7430C79C4F3E8
:100A7000001494403C4344600C79E443A4070AD03A
:100A8000C4684FEA420C06FA0CF7BC438F6807FAB9
:100A90000CF72743C7600C7904F00304022C12D131
:100AA000D40800EB840CDCF820405707FF0E09FA4D
:100AB00007F824EA0804D1F8108008FA07F848EA91
:100AC0000408CCF8208004684FEA420C06FA0CF7C0
:100AD000BC430F7907F0030707FA0CF727430760B9
:100AE0004C6814F4403F70D03C4C276847F4804772
:100AF0002760246822F0030704F480440094384CF3
:100B000007EB040CDCF8084897074FEA177809FA56
:100B100008F7BC43334FB84202D1002724E054E029
:100B2000314FB84201D101271EE0304FB84201D108
:100B3000022719E02E4FB84201D1032714E02D4FB0
:100B4000B84201D104270FE02B4FB84201D105274D
:100B50000AE02A4FB84201D1062705E0284FB842E3
:100B600001D1072700E0082707FA08F72743CCF848
:100B70000878DAF800405746D1F804C09C435FEA91
:100B8000CC2C00D51C433C60DBF800405F46D1F81C
:100B900004C09C435FEA8C2C00D51C433C60DEF80B
:100BA00000407746D1F804C09C435FEA8C3C00D5F6
:100BB0001C433C60084F083F3C68D1F804C09C438C
:100BC0005FEACC3C00D51C433C60521C102AFFF469
:100BD0002FAFBDE8F88F0000083C014044380240C8
:100BE00000300140000002400004024000080240C2
:100BF000000C0240001002400014024000180240A5
:100C0000001C02400AB1816170470904FBE7000043
:100C10000148806870470000080000200248816891
:100C20000278114481607047080000200B4810B51D
:100C3000016841F400710160016841F48061016064
:100C4000016841F480710160032000F06FF80F200B
:100C500000F006F800F024F8002010BD003C02402F
:100C600070B50D4D04464FF47A712878B1FBF0F061
:100C70000A490968B1FBF0F000F010FB48B9102CEC
:100C800007D200222146501E00F030F800206C6090
:100C900070BD012070BD000008000020140000207D
:100CA0000A4808B5016841F480410160006800F419
:100CB000804000900548001F016841F080510160AC
:100CC000006800F08050009008BD000044380240E9
:100CD000002809DB00F01F0201219140400980003B
:100CE00000F1E020C0F8001170470000F0B40E4B96
:100CF0001B680C46C3F30223C3F10705042D00D97A
:100D00000425191D072901D2002300E0DB1E01265E
:100D100006FA05F1491E214099409E40761E164074
:100D20003143F0BC02F029B80CED00E0064900F0B8
:100D3000070208684FF6FF03184040EA0220034A02
:100D400010430860704700000CED00E00000FA0559
:100D50002DE9F0470E46050065D0DFF81481D8F87C
:100D60000000F7B200F00700B04207D288F8007028
:100D7000D8F8000000F00700B04254D128683D4C7C
:100D8000810712D5400703D5206840F4E050206069
:100D90002878000703D5206840F460402060206870
:100DA000A96820F0F000084320602878C0072DD003
:100DB000304968680839012812D0022813D0032866
:100DC00011D00968890700292DDA216821F0030173
:100DD00001432160FFF71CFF814641F2883A0EE093
:100DE00009688903EFE709688901ECE7FFF710FF5D
:100DF000A0EB0901514502D90320BDE8F087206826
:100E0000696800F00C00B0EB810FEFD1D8F800104A
:100E1000404601F00701B14207D90770006800F0B1
:100E20000700B04201D00120E7E72878400705D548
:100E30002068E96820F4E050084320602878000723
:100E400006D52068296920F4604040EAC10020608E
:100E500000F03EF82168084AC1F30311515CC84014
:100E60000649086006480068FFF7FAFE0020C4E75C
:100E7000003C024008380240C83A00081400002034
:100E80000C0000200148006870470000140000209A
:100E90000448054900680968044AC1F38221515C8D
:100EA000C84070471400002008380240D83A0008B3
:100EB0000448054900680968044AC1F34231515C9D
:100EC000C84070471400002008380240D83A000893
:100ED000154810B5006810F00C02144813D04110EA
:100EE000042A0FD0082A0ED10F4C241F2268236831
:100EF00002F03F025B0207D52068C0F38810A0FB18
:100F0000010106E0084610BD2168C1F38811A1FB6C
:100F100000010023FFF754F92168C1F30141491C86
:100F20004900B0FBF1F010BD083802400024F40085
:100F30002DE9F84F04006ED02078DFF84C93C007FD
:100F4000A9F104054AD009F104000168C1F3810147
:100F5000012908D00068C0F3810002280AD1D9F81D
:100F60000000400206D52868800337D56068002855
:100F7000E1D033E06068B0F5803F10D0B0F5A02F2D
:100F8000286810D020F480302860286820F4802061
:100F900028606068A8B1FFF73BFE06460DE02868B0
:100FA00040F48030F4E740F480202860F7E700BF89
:100FB000FFF72EFE801B642873D828688003F7D5BE
:100FC0000CE0FFF725FE064605E000BFFFF720FE18
:100FD000801B6428F0D828688003F7D42078DFF8D5
:100FE000AC8280074FF0000A3ED5A748001D01687B
:100FF00011F00C0F08D00068C0F3810002280BD15B
:10100000D9F80000400207D42868800716D5E068A8
:10101000012800D112E033E1E068B8B10120C8F83E
:101020000000FFF7F5FD064605E000BFFFF7F0FD05
:10103000801B0228C0D828688007F7D52868216956
:1010400020F0F80040EAC10028600DE0C8F800A0D8
:10105000FFF7DEFD064604E0FFF7DAFD801B0228FD
:101060001FD828688007F7D42078000722D5864F3C
:1010700087486169703771B101210160FFF7C8FDD0
:10108000064604E0FFF7C4FD801B022809D8386833
:101090008007F7D50EE0C0F800A0FFF7B9FD0646BF
:1010A00005E082E0FFF7B4FD801B02287DD8386898
:1010B0008007F7D42078400768D5DFF8CCB1002747
:1010C0000BF13C0BDBF80000C0000BD4DBF8001088
:1010D00041F08051CBF80010DBF80000012700F050
:1010E000805000906B4E3068C00510D4306840F4DA
:1010F00080703060FFF78CFD009005E0FFF788FD01
:101100000099401A022850D83068C005F6D55E4EC6
:10111000A0686C3601280FD00528306810D020F068
:1011200001003060306820F004003060A068B8B181
:10113000FFF76EFD00900FE0306840F00100F4E72B
:1011400040F004003060F7E7FFF762FD0099411AB4
:1011500041F28830814266D830688007F4D50EE0CD
:10116000FFF756FD009007E0FFF752FD0099411A86
:1011700041F28830814256D830688007F4D42FB1CC
:10118000DBF8001021F08051CBF80010A069C8B343
:101190003D49091D0968C1F3810102294AD002288D
:1011A000504607D0C8F8600000E03CE0FFF730FD93
:1011B00004463BE04746C8F86000FFF729FD0646B5
:1011C00005E000BFFFF724FD801B02282BD828680C
:1011D0008001F7D4D4E907010843A16A2E4A4908DF
:1011E00002EB0141626A41EA8211084394F82C1033
:1011F00040EA0161C9F8001001203866FFF708FDD8
:10120000044606E03EE000BFFFF702FD001B022897
:1012100009D828688001F7D534E000BFFFF7F8FC53
:10122000001B022802D90320BDE8F88F286880013E
:10123000F4D427E00128F7D0D9F80000E26900F4DF
:10124000800191421CD1226A00F03F01914217D1E6
:1012500047F6C071626A0140B1EB821F10D1A26AE9
:101260004FF0FF3300F4403103EB5202B1EB024F79
:1012700006D194F82C1000F07060B0EB016F01D033
:101280000120D1E70020CFE70438024000004742A8
:10129000800E4742007000400000FFFF10B5401E66
:1012A000B0F1807F01D3012010BD4FF0E0246061D8
:1012B0000F21601701F061FD0020A061072020616F
:1012C000002010BD7047704770B590F83C20012A8F
:1012D00032D0012480F83C40022280F83D2003688F
:1012E0005A689D6822F070060A6832435A60134BB0
:1012F00002689A4214D0B2F1804F11D0104B9A423A
:101300000ED0104B9A420BD00F4B9A4208D00F4B85
:101310009A4205D00E4B9A4202D00E4B9A4204D10B
:10132000496825F080031943916080F83D40002111
:1013300080F83C10084670BD022070BD00000140DE
:101340000004004000080040000C00400004014080
:10135000004001400018004010B5040003D094F88C
:101360003D0010B107E0012010BD002084F83C00D2
:10137000204600F01FF8022084F83D00211D20685F
:1013800001F0F6F9012084F8460084F83E0084F864
:101390003F0084F8400084F8410084F8420084F85B
:1013A000430084F8440084F8450084F83D000020A0
:1013B00010BD000010B586B0044614216846FEF743
:1013C00037FF274B216800222648994209D101683E
:1013D00041F002010160006800F00200059006B0D3
:1013E00010BD214B994224D1016841F004010160F4
:1013F000006800F0040005901A481038016841F0B8
:10140000020101600068032100F002000590402005
:1014100000900220CDE90102CDE90310694613488E
:10142000FFF7F8FA002211461E20FFF75FFC1E208E
:1014300012E00F488142D2D10A48001D016841F4F0
:10144000003101600068002200F400300590114670
:101450001920FFF74BFC1920FFF73AFCBFE700000B
:1014600000040040403802400008004000040240F0
:101470000044014090F83D10012901D0012070473F
:10148000022180F83D100168CA6842F00102CA607A
:1014900000681149884214D0B0F1804F11D00F4933
:1014A00088420ED00E4988420BD00E49884208D09F
:1014B0000D49884205D00D49884202D00C49884226
:1014C00004D1816801F00701062903D0016841F0C9
:1014D000010101600020704700000140000400404D
:1014E00000080040000C00400004014000400140A2
:1014F0000018004070B5044690F83C000025012813
:1015000017D0012684F83C60022084F83D00206852
:10151000826822F0770222F47F42826008685028B5
:1015200038D00DDC20284FD005DC90B3102811D125
:101530004AE0022070BD302846D040280AD13BE066
:1015400060282FD070280DD0B0F5805F03D0B0F5A3
:10155000005F12D0012584F83D60002084F83C0033
:10156000284670BDCB68D1E90121206801F071F9EE
:101570002068816841F0770109E0CB68D1E9012159
:10158000206801F066F92068816841F4804181603B
:10159000E1E719E0CA684968206801F02FFA502194
:1015A000206806E0CA684968206801F079FA60217D
:1015B000206801F058F9CEE7CA684968206801F050
:1015C0001DFA40212068F4E7226801461046F0E742
:1015D00070472DE9F041054690F83C0000260C4686
:1015E000012810D0012085F83C0072B1042A1CD0DB
:1015F000082A2CD00C2A50D00126002085F83C0067
:101600003046BDE8F0810220FBE7D4E90012E36830
:10161000286801F005FA2868816921F00C018161D0
:1016200028688169A26811430FE0D4E90012E368D9
:10163000286801F047FA2868816921F440618161D6
:1016400028688169A26841EA02218161D5E728689A
:10165000D4E9002C277B016A21F480710162C16901
:10166000036A21F0030141EA0C0121F0F00C390773
:101670004FF420674CEA116123F4206307EA022249
:101680001A43C16102622868C16921F00C01C1617D
:101690002868C169A268114328E02868D4E90027B6
:1016A000E168036A23F480530362D0F81CC0036A24
:1016B0002CF4407C4CEA07274FF6FF7C27F4704758
:1016C0000CEA013139434FF4204723F4204307EA61
:1016D00002321A43C16102622868C16921F4406183
:1016E000C1612868C169A26841EA0221C16184E739
:1016F00010B5040003D094F83D0010B107E00120BC
:1017000010BD002084F83C00204600F01EF80220A6
:1017100084F83D00211D206801F02AF8012084F89A
:10172000460084F83E0084F83F0084F8400084F8C6
:10173000410084F8420084F8430084F8440084F8AF
:10174000450084F83D00002010BD704770B5044688
:10175000006801694FF00005C943890715D4C168C5
:10176000C943890711D4E91E01610120207720684F
:1017700080698007204602D0FFF72AFF04E000F0CE
:10178000C3F8204600F055F9257720680169C94360
:10179000490717D4C168C943490713D46FF004013E
:1017A0000161022020772068806910F4407F204684
:1017B00002D0FFF70DFF04E000F0A6F8204600F08D
:1017C00038F9257720680169C943090716D4C1682B
:1017D000C943090712D46FF0080101610420207782
:1017E0002068C0698007204602D0FFF7F1FE04E0C0
:1017F00000F08AF8204600F01CF92577206801697E
:10180000C943C90617D4C168C943C90613D46FF0C8
:1018100010010161082020772068C06910F4407F22
:10182000204602D0FFF7D4FE04E000F06DF8204619
:1018300000F0FFF8257720680169C943C90708D17E
:10184000C168C943C90704D1891E0161204600F05F
:1018500055F920680169C943090609D4C168C9431B
:10186000090605D46FF0800101612046FFF72AFDCB
:1018700020680169C943490609D4C168C9434906BA
:1018800005D46FF040010161204600F059F920684D
:101890000169C94389060BD4C168C943890607D4C5
:1018A0006FF0200101612046BDE87040FFF70BBDDD
:1018B00070BD000010B586B0044614216846FEF7DE
:1018C000B7FC0E492068884215D10D4800210268F6
:1018D00042F004020260006800F0040005904FF43A
:1018E000707000900220CDE90101CDE90310694636
:1018F0000448FFF78FF806B010BD00000004004058
:101900003038024000080240704770B5044690F835
:101910003C0000260D4601280FD0012084F83C0031
:101920006AB1042A1DD0082A2FD00C2A3FD00126E4
:10193000002084F83C00304670BD022070BD206855
:1019400000F09AFF2068816941F0080181612068F8
:10195000816921F004018161206881692A6911434C
:1019600011E0206800F0B8FF2068816941F400614F
:1019700081612068816921F48061816120688169C9
:101980002A6941EA02218161D2E7206800F0DAFF8A
:101990002068C16941F00801C1612068C16921F076
:1019A0000401C1612068C1692A69114311E02068FE
:1019B00000F0FCFF2068C16941F40061C16120684A
:1019C000C16921F48061C1612068C1692A6941EA65
:1019D0000221C161ACE710B5040003D094F83D00CA
:1019E00010B107E0012010BD002084F83C00204623
:1019F00000F01EF8022084F83D00211D206800F050
:101A0000B7FE012084F8460084F83E0084F83F00C9
:101A100084F8400084F8410084F8420084F84300D0
:101A200084F8440084F8450084F83D00002010BD8F
:101A30007047704710B50446022249B104290ED000
:101A4000082913D094F84100012816D0012010BDB8
:101A500094F83E000128F9D184F83E200FE094F874
:101A60003F000128F2D184F83F2008E094F84000BC
:101A70000128EBD184F8402001E084F841200122C4
:101A8000206800F0D9FE16492068164A884201D025
:101A9000904203D1436C43F400434364206888427E
:101AA00013D0B0F1804F10D00F4988420DD00F49AC
:101AB00088420AD00E49884207D0904205D00D498D
:101AC000884202D00C49884204D1816801F00701A4
:101AD000062903D0016841F001010160002010BD1A
:101AE00000000140000401400004004000080040E4
:101AF000000C0040004001400018004001460E4A22
:101B000010B50020914216D1FEF72EFD02460423A7
:101B100001212D2000F01EFD084C04230221227813
:101B2000202000F017FD627804230321BDE8104057
:101B3000202000F00FBD10BD040100200000002097
:101B40007047704770470000F8B5016804460868A0
:101B5000CA684B6910F00F0F4FF000055AD003F020
:101B6000010602F49077374365D0C10705D0D1054F
:101B700003D5216C41F001012164410705D5D90746
:101B800003D0216C41F002012164810705D5D907FA
:101B900003D0216C41F004012164010707D502F054
:101BA0002001314303D0216C41F008012164216CF4
:101BB00000293BD0800604D5900602D5204600F0CF
:101BC000CBFF20684069216CC0F3801001F0080150
:101BD000014320462BD000F098FF20684069400662
:101BE00021D52068143050E8001F21F0400140E862
:101BF0000012002AF5D1A06BA8B16C490165A06B59
:101C0000FEF7E3FE002811D0A06B016D01B0BDE826
:101C1000F040084783060ED593060CD52046BDE854
:101C2000F84000F099BF2046FFF78CFFF8BDFFF7A2
:101C300089FF2564F8BD266B2023012E79D1C606C5
:101C400077D5D60675D5086848680090486940067B
:101C500040D5A16B086840680004000CEAD0A28D52
:101C60008242E7D9E085C869B0F5807F2DD0206831
:101C70000C3050E8001F21F4807140E80012002A67
:101C8000F5D12068143050E8001F21F0010140E830
:101C90000012002AF5D12068143050E8001F21F00E
:101CA000400140E80012002AF5D184F83E30256357
:101CB00020680C3050E8001F21F0100140E80012AD
:101CC000002AF5D1A06BFEF737FEA08DE18D401AFA
:101CD00081B229E0A08DE18D401A81B2E08D00280B
:101CE000A8D00029A6D020680C3050E8002F22F49C
:101CF000907240E80026002EF5D12068143050E89C
:101D0000002F22F0010240E80026002EF5D184F8D1
:101D10003E30256320680C3050E8002F22F010027E
:101D200040E80023002BF5D12046FFF70AFFF8BD5D
:101D3000FFE705062BD5150629D594F83D00212887
:101D4000F5D1A068B0F5805F01D12069B0B1206AFB
:101D5000411C2162216800784860E08C401E00042C
:101D6000000CE084E3D12068C16821F08001C160EB
:101D70002068C16841F04001C160D8E7206A00884E
:101D8000C0F308004860206A801C2062E5E7400636
:101D9000CDD55006CBD5CA68204622F04002CA6095
:101DA00084F83D3000F0D4F8C1E70000FB2A0008B9
:101DB00070B5040004D094F83D00002510B106E091
:101DC000012070BD84F83C50204600F023F8242008
:101DD00084F83D002068C16821F40051C1602046AC
:101DE00000F01AFF2068016921F490410161206828
:101DF000416921F02A0141612068C16841F4005124
:101E0000C1602564202084F83D0084F83E00002055
:101E100070BD0000F0B587B0044614216846FEF797
:101E200007FA334B2268002432490225032607278C
:101E300031489A4221D12F4A1432136843F01003DB
:101E40001360126802F0100205920A6842F0010263
:101E50000A60096802AA01F0010105917102CDE949
:101E6000001582E8D0006946FEF7D4FD0022114635
:101E70002520FEF73BFF252035E0204B9A4234D148
:101E80001C4A1032136843F400331360126802F4E2
:101E9000003205920A6842F001020A600A6802F004
:101EA000010205920A6842F008020A60096802AA63
:101EB00001F0080105910821CDE9001582E8D00064
:101EC0006946FEF7A7FD2020CDE9000502AA694674
:101ED00082E8D0000A48FEF79DFD00221146262028
:101EE000FEF704FF2620FEF7F3FE07B0F0BD00006A
:101EF0000010014030380240000002400044004021
:101F0000000C024090F83E30202B0ED159B152B156
:101F100090F83C30012B08D0012380F83C3000239E
:101F2000036300F0FFBE01207047022070470000ED
:101F300000680449884204D1012203490348FFF79D
:101F4000E1BF7047004400401800002090010020CD
:101F50007047FEE72DE9F04106461448016821F478
:101F600040210160016841F480210160104C00278C
:101F7000C4F8A0723D464FF00108F009C4F8A4026D
:101F80007006060E022000F017FFC4F8A08202209F
:101F900000F012FFC4F8A072022000F00DFF6D1CCB
:101FA000EDB2082DE9D3BDE8F08100000004024045
:101FB0000080404270B50D48016821F44021016065
:101FC000016841F480210160094C0120C4F8A40299
:101FD000C4F8A002042004F5287400F0EDFE0025EA
:101FE0006560042000F0E8FE256070BD000402403A
:101FF000008040420E4810B5016821F44021016084
:10200000016841F4802101600A4C0020C4F8A0025C
:10201000C4F8A402042004F5287400F0CDFE0120C9
:1020200020606060BDE81040042000F0C5BE0000E4
:10203000000402400080404270B51248002401684C
:1020400021F440210160016801600F4D0126C5F8AF
:10205000A462304600F0B0FEC5F8A062012000F096
:10206000ABFE07E0641CE4B2FA2C03D9FFF7C2FF11
:10207000012070BDD5F824020028F3D1C5F8A002D4
:1020800070BD000000040240008040427FB5002483
:1020900015480094019402941249039401604FF48E
:1020A0008031C0E901140461047680F820400F49B2
:1020B000C0E90A140125C561C46080F8304045615B
:1020C000FEF70BFB08B1FEF74CFA0420CDE9000542
:1020D000694602940448FEF757FA002801D0FEF73B
:1020E00040FA7FBD002001402C0000200100000FBD
:1020F0002DE9F04F87B014216846FEF799F84D4856
:102100000025016841F004010160016801F004014B
:102110000591016841F020010160016801F0200192
:102120000591016841F080010160016801F08001C2
:102130000591016841F001010160016801F00101B0
:102140000591016841F008010160016801F0080192
:102150000591016841F040010160016801F0400112
:102160000591016841F0020101600068DFF8C8B024
:1021700000F002004FF400770590002239465846DF
:10218000FEF740FD4FF48078002241462B48FEF7D1
:1021900039FD4FF40069002249462948FEF732FD17
:1021A000012239462748FEF72DFD4FF4407A0122DF
:1021B00051462548FEF726FD01240326CDE900748B
:1021C000CDE9024669465846FEF724FCCDF800806A
:1021D000CDE90145694619480395FEF71BFCCDE999
:1021E0000094CDE9024669461548FEF713FCC0206D
:1021F000CDE90005694615480295FEF70BFCCDE9CF
:102200000074CDE9024669460E48FEF703FC8020C3
:10221000CDE90005694602940B48FEF7FBFBCDE9CA
:1022200000A4CDE9024669460748FEF7F3FB07B074
:10223000BDE8F08F30380240001402400000024038
:10224000000802400018024000040240000C024056
:102250000C4810B50A49016042F2CF0141600021EB
:1022600044F61F62C0E90212016180218161FFF71B
:1022700073F8002803D0BDE81040FEF772B910BD16
:10228000004401400401002010B58EB000240794E2
:10229000089409940A940B941C2168460C94FDF749
:1022A000C7FF2A48284901605321C0E9011440F2C0
:1022B000F311C0E903148461FFF74EF808B1FEF78B
:1022C00050F94FF48050079007A92048FFF712F902
:1022D00008B1FEF746F91D48FFF77DFB08B1FEF790
:1022E00040F90B940BA919480C94FEF7EDFF08B1C7
:1022F000FEF737F96020CDE9000402940022694618
:1023000012480494FFF701FB08B1FEF72AF90422F2
:1023100069460E48FFF7F9FA08B1FEF722F90822DC
:1023200069460A48FFF7F1FA08B1FEF71AF90C22DC
:1023300069460648FFF7E9FA08B1FEF712F90348C3
:10234000FFF7B8FA0EB010BD000400407400002082
:1023500010B58AB00024224804940594069407948A
:10236000089409940094019402941C490394016018
:102370005321C0E901144FF6FF71C0E903148461D1
:10238000FEF7EAFF08B1FEF7ECF84FF48050049036
:1023900004A91348FFF7AEF808B1FEF7E2F81048B9
:1023A000FFF7A6F908B1FEF7DCF8089408A90C4875
:1023B0000994FEF789FF08B1FEF7D3F80120CDE9B3
:1023C000004002940022694605480394FFF701F992
:1023D000002801D0FEF7C5F80AB010BD0008004083
:1023E000BC0000200C4810B50A4901604FF416519A
:1023F0004160002181600C22C160C0E9041281614A
:10240000C161FFF7D5FC002803D0BDE81040FEF7FE
:10241000A8B810BD001001404C0100200C4810B5B8
:102420000A4901604FF416514160002181600C227D
:10243000C160C0E904128161C161FFF7B9FC0028E5
:1024400003D0BDE81040FEF78CB810BD004400403A
:1024500090010020FEE7FEE770B506465FF000043D
:1024600004F1B000C0B200F0F1F8012000F0EEF885
:10247000102000F0EBF80025304600F000F96D1C4C
:10248000EDB2802DF8D3641CE4B2082CE8D370BD03
:1024900010B54FF4FA70FEF7ABFAAE2000F0D6F8A4
:1024A000002000F0D3F8102000F0D0F8402000F019
:1024B000CDF8812000F0CAF8CF2000F0C7F8A120A5
:1024C00000F0C4F8C82000F0C1F8A62000F0BEF863
:1024D000A82000F0BBF83F2000F0B8F8D32000F0AF
:1024E000B5F8002000F0B2F8D52000F0AFF8802059
:1024F00000F0ACF8D92000F0A9F8F12000F0A6F81F
:10250000DA2000F0A3F8122000F0A0F8DB2000F0A1
:102510009DF8402000F09AF8202000F097F8022063
:1025200000F094F88D2000F091F8142000F08EF85F
:10253000A42000F08BF8A62000F088F8AF2000F06F
:1025400085F80020FFF788FF0021BDE8104008460D
:1025500000F069B82DE9F0471D46914688460646C9
:1025600026E0691E0A2000F057F8B9FBF0F00A21B6
:10257000B0FBF1F201FB120710377E2E04D908F1EF
:102580000100002600F0FF084146304600F04BF8FD
:10259000094907EB4700002401EB4007385D00F0D4
:1025A0006EF8641CE4B2062CF8D3B61DF6B26D1EAC
:1025B000002DD6D1BDE8F087B03200082DE9F047F4
:1025C00090468A4605460026DFF848901CE02038F1
:1025D000C7B27E2D04D90AF10100002500F0FF0AE0
:1025E0005146284600F01FF807EB4700002409EB8E
:1025F0004007385D00F043F8641CE4B2062CF8D3C1
:10260000AD1D761CEDB2F6B218F806000028DED13A
:10261000BDE8F087B03200080246012000E05043D8
:10262000491EFCD2704710B50446B031C8B200F064
:102630000DF8102040EA141000F008F804F00F0024
:10264000BDE8104040F00100AFF3008010B5044633
:10265000FFF7B0FC7820FFF77DFCFFF7EDFC00B141
:10266000FEE70020FFF776FCFFF7E6FC2046FFF7C9
:1026700071FCFFF7E1FCBDE81040FFF7BBBC10B5F3
:102680000446FFF797FC7820FFF764FCFFF7D4FCC3
:102690004020FFF75FFCFFF7CFFC2046FFF75AFC16
:1026A000FFF7CAFCBDE81040FFF7A4BC70477047B5
:1026B000FEF7B4BA30B593B030216846FDF7B8FDE7
:1026C00014210CA8FDF7B4FD1D480025016841F058
:1026D00080510160006800F0805011901948016835
:1026E00041F4804101600068022400F480401190B0
:1026F00001200090000401908001CDE9064008AA65
:102700000420A82182E813000B906846FEF710FC15
:1027100008B172B6FEE70CA90F2081E831004FF432
:10272000A0500F904FF48050109005210CA8FEF798
:102730000FFB002801D072B6FEE713B030BD0000D9
:1027400040380240007000400248016841F47001C6
:102750000160704788ED00E00148FEF7F7BF000018
:10276000040100200148FEF7F1BF0000BC0000207A
:10277000F0B50268254C264D264E274F274B4FF0CB
:10278000804CA04209D0604507D0A84205D0B04295
:1027900003D0B84201D0984204D122F0700E4A68AA
:1027A00042EA0E02A0421BD0604519D0A84217D0C1
:1027B000B04215D0B84213D0984211D0184DA8425B
:1027C0000ED0184DA8420BD0174DA84208D0174D77
:1027D000A84205D0164DA84202D0164DA84203D1FA
:1027E00022F44075CA682A434D6922F080022A43C8
:1027F00002608A68C2620A688262A04201D098427E
:1028000001D10969016301214161F0BD000001406E
:102810000004004000080040000C0040000401409B
:1028200000400140004401400048014000180040C1
:10283000001C00400020004010B501F01F030121E2
:10284000046A99408C430462016A9A401143016210
:1028500010BD10B5846842EA032224F47F440A4381
:102860002243826010BD826822F070020A4342F067
:102870000701816070470000F0B5026A22F0010292
:102880000262036A42688469124E24F073050C6880
:102890002C4323F002058B682B430D4DA84201D039
:1028A000B04205D123F00807CB683B4323F0040373
:1028B000A84201D0B04205D14D6922F440721543BF
:1028C0008A692A4342608461496841630362F0BDBA
:1028D0000000014000040140F0B5026A22F010023D
:1028E0000262026A436884690D6824F4E64444EA9B
:1028F00005248D6822F0200242EA05120F4D104E89
:10290000A84201D0B04206D1CF6822F0800242EA4C
:10291000071222F04002A84201D0B04207D14D690F
:1029200023F4406343EA85038D6943EA85034360EA
:102930008461496881630262F0BD000000000140CB
:1029400000040140F0B5026A22F480720262026A59
:102950004368C46922F4007224F073050C68124EB7
:102960002C438D6842EA05220E4DA84201D0B042A8
:1029700006D1CF6822F4006242EA072222F4806284
:10298000A84201D0B04207D14D6923F4405343EA35
:1029900005138D6943EA05134360C4614968C16347
:1029A0000262F0BD000001400004014030B5026A3F
:1029B00022F480520262046A4268C3690D6823F4FB
:1029C000E64343EA05238D6824F4005444EA0534C1
:1029D000084DA84202D0084DA84204D14D6922F406
:1029E000804242EA85124260C36149680164046220
:1029F00030BD0000000001400004014010B5036A32
:102A0000046A24F001040462846924F0F00444EAB6
:102A1000021423F00A020A438461026210BD00001E
:102A200070B5046A24F0010404628469056A154ED5
:102A3000B04214D0B0F1804F11D0134EB0420ED03E
:102A4000124EB0420BD0124EB04208D0114EB042DE
:102A500005D0114EB04202D0104EB04203D124F046
:102A60000304144301E044F001041A0724F0F004C5
:102A700044EA126225F00A0301F00A011943826157
:102A8000016270BD000001400004004000080040E9
:102A9000000C0040000401400040014000180040CC
:102AA00010B5036A23F0100303628369046A23F4F8
:102AB000704343EA023224F0A00343EA0111826129
:102AC000016210BD30B5046A24F010040462846908
:102AD000056A24F4407444EA022222F470444FF65A
:102AE000FF7202EA03322243A02425F0A00304EA85
:102AF000011119438261016230BD10B5806B002164
:102B0000C185C184FFF71EF810BD01680C3151E882
:102B1000002F22F4907241E80023002BF5D10168C8
:102B2000143151E8002F22F0010241E80023002B6C
:102B3000F5D1016B012909D101680C3151E8002F51
:102B400022F0100241E80023002BF5D1202180F86B
:102B50003E1000210163704708B590F83E1022290D
:102B600001D0022008BD82684FF480539A4201D1FF
:102B7000016921B1816A9A421BD04AB10AE0026818
:102B8000816A5268C2F308020A80816A891C08E0DF
:102B9000026972B10268526802F07F020A70816AAB
:102BA000491C8162C18D491E0904090CC18503D0ED
:102BB00019E002685268F1E70168CA6822F0200251
:102BC000CA600168CA6822F48072CA6001684A69F2
:102BD00022F001024A61202180F83E10016B012998
:102BE00003D0FFF7A5F9002008BD002101630168AB
:102BF0000C3151E8002F22F0100241E80023002B95
:102C0000F5D101680A68D20602D50A6849680091C0
:102C1000818DFEF796FFE6E770B50446006801690E
:102C2000E26821F44051114301612169A068E26921
:102C300008436169114308432168CA6849F20C637B
:102C40009A430243CA6020684169A26921F4407135
:102C50001143416131492068884202D0304988429D
:102C600002D1FEF725F901E0FEF712F9E26900232F
:102C7000192164253226B2F5004F626828D0A0FBE6
:102C80000101930F9200FDF79BFA0146B0FBF5F0AE
:102C90006FF01802504301EB800006EB0010B0FB10
:102CA000F5F000F0F002B1FBF5F002EB0012B1FB21
:102CB000F5F06FF01803584301EB800006EB0010AD
:102CC000B0FBF5F000F00F0021681044886070BD83
:102CD000A0FB010192185B41FDF772FA0146B0FBBF
:102CE000F5F00201B1FBF5F06FF01803584301EB6A
:102CF000800006EBC000B0FBF5F000F0F80002EB3E
:102D00004002B1FBF5F0584301EB800006EBC00038
:102D1000B0FBF5F000F00700D6E70000001001401E
:102D20000014014081628285C28500210164222253
:102D300080F83E2080F83C10016921B10168CA6822
:102D400042F48072CA6001684A6942F001024A6135
:102D50000068C16841F02001C16000207047000098
:102D60000148FEF7F1BE00004C0100200148FEF7CB
:102D7000EBBE000090010020FEE70907090E0028C5
:102D800004DB00F1E02080F80014704700F00F0031
:102D900000F1E02080F8141D704702E008C8121FFF
:102DA00008C1002AFAD170477047002001E001C134
:102DB000121F002AFBD1704710B50446FEF762F8D7
:102DC0000349B0FBF1F16143491EFDD210BD000083
:102DD00000093D000748064903684A885A630368AA
:102DE00000229A630368DA63006809880164704707
:102DF0000200002074000020074810B5026800217E
:102E00005163064A04685388A36303681288DA632F
:102E10000068016410BD0000740000200200002062
:102E20000648002102685163054A036852889A6384
:102E30000268D163006801647047000074000020DC
:102E40000200002006480021026851630268916375
:102E5000044A03681288DA6300680164704700005E
:102E60007400002002000020FDF7E0FEFFF722FCC6
:102E7000FFF73EF9FFF708FAFFF7B4FAFFF768FA31
:102E8000FFF7CCFAFFF702F9FFF7E2F9FFF700FBD3
:102E900000212048FEF7CEFD04211E48FEF7CAFDA2
:102EA00008211C48FEF7C6FD0C211A48FEF7C2FD9A
:102EB000012219491948FFF725F81948FEF7DAFAEF
:102EC000012118A20846FFF779FB18A20221012070
:102ED000FFF774FB17A203210120FFF76FFB0E4CD5
:102EE0001649481EFDF7FDFA2088662808D062289A
:102EF00009D072280AD06C28F2D1FFF791FFEFE7D2
:102F0000FFF77AFFECE7FFF765FFE9E7FFF79AFFC6
:102F1000E6E7000074000020180000209001002067
:102F200004010020736D6F6B653A200074656D3A83
:102F30002000000068756D3A2000000001000020AC
:102F40000000000000000000000000000000000081
:102F50000000000000000000000000000000000071
:102F60000000007F7F0406033F7F404040787800E8
:102F70000000000000000000000000000000000051
:102F80000000000000000000000000000000000041
:102F90000000000000000000000000000000000031
:102FA0000000000000000000000000000000000021
:102FB00010218670007E4A4A4A4A4A7E000000007C
:102FC00002FE01407F41417F41417F41417F4000FE
:102FD0000000FC042424FCA5A6A4FC242424040052
:102FE00080601F808042462A12122A2642C040007A
:102FF000080808FF8848009848280A2C48D8080084
:103000000242817F0000404242427E4242424000F2
:1030100000504F4A48FF48484800FC0000FF0000AD
:1030200000003F0101FF21613F000F40807F000051
:1030300000908CA4A4A4A5A6A4A4A4A4948C040089
:103040000080402018070000003F40404070000012
:10305000000474D4FFD47404100CB744B40C0400FE
:103060000042437A4342437E4B4B4A4A424301006B
:10307000080808080808F94A4C4848C80808080021
:10308000404020100C0300002040403F00000000A2
:1030900000202C246474ADA6E43424242C240000E5
:1030A0000024242515150DFE040D17142464240096
:1030B000000000F848484C4B4A484848F8000000D7
:1030C000000000FF4444444444444444FF000000E2
:1030D000202424E4242424201010FF1010F00000E9
:1030E000081C0B080C054E24100C0320403F000068
:1030F000080808FF8848009848280A2C48D8080083
:103100000242817F0000404242427E4242424000F1
:1031100000504F4A48FF48484800FC0000FF0000AC
:1031200000003F0101FF21613F000F40807F000050
:103130000807FAAAAEAAAAA8ACABAAFE0A02020025
:1031400008088B6A1E0A0A0A0AFE0A0B0808080009
:10315000106001C63000101010FF10101010000099
:103160000404FE01004161514D43414151E1010020
:103170004041CE04008040BE828282BEC0404000FA
:1031800000007F20908040432C10102C43C0400052
:1031900020212EE4000020202020FF2020202000DD
:1031A0000000007F201008000000FF000000000069
:1031B0000000F848484848FF48484848F8000000E0
:1031C00000000F040404043F444444444F40700092
:1031D00000000202020202E2120A0602008000005F
:1031E000010101010141817F010101010101010092
:1031F0000020202222E2222222E22222222020007B
:10320000004020100C030000003F40404040700090
:103210004020F80F82601E1410FF101010100000E4
:103220000000FF000101010101FF01010101010096
:10323000000000007E4848484848484848CC0800FC
:10324000000404040404040404244644201F000071
:10325000849494FF949480242424FC12131200007C
:10326000201806FF021C0A0202023F414141710080
:103270001010D0FE509000101010D0FE1010100052
:10328000080601FF000110080443807F00000000D1
:103290009088A7A2A6BAA2F8A7A2A6BAA282800086
:1032A00000040404040C340444847F040404000077
:1032B0000000000000000000002F000000000700D8
:1032C000070000147F147F1400242A7F2A12006252
:1032D00064081323003649552250000005030000FE
:1032E00000001C224100000041221C000014083E86
:1032F00008140008083E0808000000A0600000084C
:10330000080808080000606000000020100804029F
:10331000003E5149453E0000427F4000004261515D
:103320004946002141454B31001814127F100027F7
:1033300045454539003C4A494930000171090503BA
:1033400000364949493600064949291E00003636EB
:10335000000000005636000000081422410000144E
:10336000141414140000412214080002015109062B
:1033700000324959513E007C1211127C007F4949AC
:103380004936003E41414122007F4141221C007FDD
:1033900049494941007F09090901003E4149497AEB
:1033A000007F0808087F0000417F41000020404165
:1033B0003F01007F08142241007F40404040007FD1
:1033C000020C027F007F0408107F003E4141413E15
:1033D000007F09090906003E4151215E007F09195D
:1033E00029460046494949310001017F0101003F5A
:1033F0004040403F001F2040201F003F4038403FDA
:10340000006314081463000708700807006151493D
:10341000454300007F41410000552A552A550000D0
:1034200041417F000004020102040040404040404E
:10343000000001020400002054545478007F4844E6
:10344000443800384444442000384444487F00381D
:103450005454541800087E0901020018A4A4A47C46
:10346000007F080404780000447D40000040808410
:103470007D00007F102844000000417F4000007C58
:1034800004180478007C0804047800384444443864
:1034900000FC242424180018242418FC007C0804B0
:1034A000040800485454542000043F444020003C89
:1034B0004040207C001C2040201C003C4030403C10
:1034C000004428102844001CA0A0A07C00446454A0
:1034D0004C441414141414140000000000000000E4
:1034E0000000000000000000000000F800000000E4
:1034F000000000333000000000100C06100C060025
:10350000000000000000000040C07840C07840008B
:10351000043F04043F040400007088FC08300000ED
:10352000001820FF211E0000F008F000E018000045
:1035300000211C031E211E0000F0088870000000FE
:103540001E2123241927211010160E000000000050
:103550000000000000000000000000E0180402006D
:10356000000000071820400000020418E0000000DE
:103570000040201807000000404080F080404000DC
:103580000202010F01020200000000F00000000032
:103590000101011F01010100000000000000000006
:1035A00080B070000000000000000000000000007B
:1035B0000001010101010101000000000000000004
:1035C000003030000000000000000000806018049F
:1035D000006018060100000000E010080810E0007C
:1035E000000F102020100F00001010F80000000045
:1035F0000020203F2020000000700808088870008C
:10360000003028242221300000300888884830000B
:103610000018202020110E000000C02010F800002B
:1036200000070424243F240000F8088888080800C4
:103630000019212020110E0000E0108888180000D9
:10364000000F112020110E0000380808C8380800AB
:103650000000003F0000000000708808088870002B
:10366000001C222121221C0000E010080810E000AC
:103670000000312222110F00000000C0C000000035
:10368000000000303000000000000080000000005A
:103690000000806000000000000080402010080052
:1036A000000102040810200040404040404040001B
:1036B00004040404040404000008102040800000F6
:1036C0000020100804020100007048080808F000FB
:1036D0000000003036010000C030C828E810E000CB
:1036E0000718272423140B000000C038E000000056
:1036F000203C23020227382008F8888888700000C0
:10370000203F202020110E00C03008080808380093
:10371000071820202010080008F808080810E0000A
:10372000203F202020100F0008F88888E8081000AB
:10373000203F20202320180008F88888E80810007F
:10374000203F200003000000C030080808380000B7
:1037500007182020221E020008F808000008F808B8
:10376000203F210101213F20000808F8080800003F
:103770000020203F2020000000000808F808080072
:10378000C08080807F00000008F888C028180800EA
:10379000203F20012638200008F808000000000023
:1037A000203F20202020300008F8F800F8F808001A
:1037B000203F003F003F200008F830C00008F80814
:1037C000203F200007183F00E01008080810E00024
:1037D0000F10202020100F0008F808080808F0003B
:1037E000203F210101010000E01008080810E0005E
:1037F0000F18242438504F0008F8888888887000F3
:10380000203F2000030C3020007088080808380092
:103810000038202121221C00180808F80808180088
:103820000000203F2000000008F808000008F80809
:10383000001F202020201F000878880000C83808BA
:10384000000007380E010000F80800F80008F80032
:10385000033C0700073C03000818688080681808CC
:1038600020302C03032C30200838C800C83808004A
:103870000000203F2000000010080808C838080099
:103880002038262120201800000000FE020202003D
:103890000000007F40404000000C30C000000000ED
:1038A000000000010638C00000020202FE00000015
:1038B000004040407F0000000000040202020400BB
:1038C00000000000000000000000000000000000F8
:1038D00080808080808080800002020400000000E0
:1038E00000000000000000000000808080800000D8
:1038F0000019242222223F2008F8008080000000C6
:10390000003F112020110E00000000808080000088
:10391000000E112020201100000000808088F80097
:10392000000E112020103F200000808080800000C9
:10393000001F222222221300008080F0888888182D
:103940000020203F20200000000080808080800038
:10395000006B94949493600008F8008080800000CD
:10396000203F210000203F200080989800000000A8
:103970000020203F202000000000008098980000D8
:1039800000C08080807F000008F8000080808000F8
:10399000203F24022D302000000808F8000000001D
:1039A0000020203F202000008080808080808000D8
:1039B000203F20003F20003F80800080808000006A
:1039C000203F210000203F200000808080800000F8
:1039D000001F202020201F00808000808000000029
:1039E00080FFA12020110E00000000808080800058
:1039F000000E112020A0FF80808080008080800049
:103A000020203F2120000100000080808080800075
:103A10000033242424241900008080E080800000EA
:103A20000000001F20200000808000000080800037
:103A3000001F202020103F20808080000080808098
:103A400000010E3008060100808000800080808028
:103A50000F300C030C300F0000808000808080004D
:103A60000020312E0E312000808080000080808078
:103A700080818E7018060100008080808080800028
:103A80000021302C2221300000000000807C020246
:103A900000000000003F404000000000FF00000068
:103AA00000000000FF0000000002027C8000000017
:103AB0000040403F00000000000601010202040433
:103AC00000000000000000000000000000000000F6
:103AD00001020304060708090000000001020304B4
:103AE000003B000800000020180000009A2D00088C
:103AF000183B000818000020C0050000AA2D00088F
:103B00000101F401F40100000100000010000000B8
:083B1000000000000024F40095
:040000050800018965
:00000001FF
